:100000000000042089030000710300007303000056
:100010007503000077030000790300000000000072
:100020000000000000000000000000007B03000052
:100030007D030000000000007F030000810300003A
:100040008303000083030000830300008303000098
:100050008303000083030000830300008303000088
:10006000B10B000083030000830300008303000042
:100070008303000083030000830300008303000068
:100080008303000083030000830300008303000058
:100090008303000083030000830300008303000048
:1000A0008303000083030000830300008303000038
:1000B0008303000083030000000000000000000034
:1000C0008303000083030000830300008303000018
:1000D0008303000083030000830300008303000008
:1000E000830300008303000083030000000000007E
:1000F00000000000830300000000000083030000F4
:1001000000000000000000000000000000000000EF
:1001100000000000000000000000000000000000DF
:1001200000000000000000000000000000000000CF
:1001300000000000000000000000000000000000BF
:1001400000000000000000000000000000000000AF
:10015000000000000000000000000000000000009F
:10016000000000000000000000000000000000008F
:10017000000000000000000000000000000000007F
:10018000000000000000000000000000000000006F
:10019000000000000000000000000000000000005F
:1001A000000000000000000000000000000000004F
:1001B000000000000000000000000000000000003F
:1001C000000000000000000000000000000000002F
:1001D000000000000000000000000000000000001F
:1001E000000000000000000000000000000000000F
:1001F00000000000000000000000000000000000FF
:100200003A493B480A1A02D0072291438D463949A0
:1002100039480A1A06D00722914381F3098802223D
:1002200082F3148835483649364A00F041F836489A
:100230003649374A00F03CF836483749374A00F02B
:1002400037F837483749384A00F032F837483849E4
:10025000384A00F02DF838483849394A00F028F873
:1002600038483949394A00F023F8394839490022D9
:1002700000F036F838483949002200F031F83848A3
:100280003849091A01F002F8374A904725482649AB
:10029000884205D00268043003B4904703BCF7E7F6
:1002A00000208646EC4600200021304A9047FEE7B9
:1002B000884214D0521A12D003460B43134303242E
:1002C000234206D1036804300B600431043AF9D1AB
:1002D0007047037801300B700131013AF9D1704752
:1002E000884202D002700130FAE770470000042013
:1002F00000E003200000042000000420BC130000E4
:100300000000002004000020E4030000E4030000DB
:10031000A4120000BC130000000000200000002018
:10032000A4120000A4120000A4120000A4120000F5
:10033000A4120000A4120000A4120000A4120000E5
:10034000BC130000C01300000400002004000020C3
:10035000040000203C0000203C0000203C00002065
:100360003C0000203C200020B1030000C90D00002B
:10037000FEE7FEE7FEE7FEE7FEE7FEE7FEE7FEE755
:10038000FEE7FEE700F002B8FFF7FCBF0F484FF0B2
:100390000701884385460E4880470E48016841F4AE
:1003A00070010160BFF34F8FBFF36F8FFFF728BF5E
:1003B00009480A490A4A884207D0521A05D00378E8
:1003C00001300B700131013AF9D17047000004206F
:1003D000D10E000088ED00E0A41200000000002013
:0403E00000000020F9
:1003E40086B003900291019201238DF817309DF895
:1003F4001730214A039B13601F4A029B53601E4A15
:10040400019B9360039B44F20102934213D0039B2C
:1004140044F20202934221D1019B174AD360164B46
:10042400DB681B881A46144B9A61134BDB685B68C4
:10043400114AD36112E0019B0F4A13610E4B1B69F1
:100444009B680D4A53610C4B1B691B680A4A9361F4
:10045400094B1B695B68084AD36100BF72B600BFD1
:1004640000BF9DF81730DBB2002BFAD162B600BF93
:1004740000BF06B0704700BF0400002000B583B081
:1004840002900091019244F2010071466A4600F024
:1004940003F803B000BD00BF00B587B0039002911C
:1004A400019272B600BF039B44F20102934207D04B
:1004B400039B44F20202934205D1019B059303E09E
:1004C400019B049300E000BF074B1B6803F001038A
:1004D400002B00D000BE019A02990398FFF780FF19
:1004E40000BF07B05DF804FBF0ED00E000B585B097
:1004F40003460091ADF80630BDF80630ADF808307B
:10050400009B039302AB1A46002144F20200FFF75A
:10051400C3FF00BF05B05DF804FB000082B00346D2
:100524008DF807309DF8073003F01F0205499DF947
:1005340007305B09012000FA02F241F8232000BFD2
:1005440002B0704700E100E082B0034600918DF8EC
:1005540007309DF90730002B0CDA009BDAB20C4906
:100564009DF8073003F00F03043B5201D2B20B4451
:100574001A7609E0009BDAB206499DF90730520168
:10058400D2B20B4483F8002300BF02B0704700BF0F
:1005940000ED00E000E100E082B00190019B1B0B44
:1005A4005BB2184602B0704700B583B003460A46F2
:1005B4008DF8073013468DF806309DF80630072B6A
:1005C40003D908496B20FFF791FF9DF806209DF998
:1005D400073011461846FFF7B7FF00BF03B05DF8B8
:1005E40004FB00BFA412000000B583B003468DF8DD
:1005F40007309DF907301846FFF790FF00BF03B09E
:100604005DF804FB82B001900B468DF803309DF831
:100614000330019A134401221A6000BF02B07047EC
:1006240084B001900B46ADF80230BDF80230019A57
:10063400134400221A60BDF80230019A13441B6867
:100644000393039B00BF04B0704782B001900B4634
:10065400ADF80230BDF80230019A13441B68002B38
:1006640014BF01230023DBB2184602B0704782B0E6
:1006740001900091019BD3F80022009B1A43019B37
:10068400C3F8002200BF02B0704782B0019000910D
:10069400019BD3F80022009BDB431A40019BC3F863
:1006A400002200BF02B0704782B001900091019B0C
:1006B400009AC3F8042300BF02B0704782B00190CF
:1006C4000091019B009AC3F8082300BF02B0704751
:1006D40082B001900091019BD3F80423009B134046
:1006E400002B14BF01230023DBB2184602B070476D
:1006F40082B001900B468DF80330019BD3F804358A
:1007040023F003029DF8033003F003031A43019B13
:10071400C3F8042500BF02B0704782B001900B46B5
:100724008DF80330019BD3F8083523F003029DF8BC
:10073400033003F003031A43019BC3F8082500BFE9
:1007440002B0704782B001900B468DF80330019BD4
:10075400D3F8103523F00F029DF8033003F00F0394
:100764001A43019BC3F8102500BF02B0704784B040
:1007740003900B4601928DF80B309DF80B20039BE0
:1007840002F5A872019943F8221000BF04B0704723
:1007940082B00190019B9B0003F5A0739BB21846A5
:1007A40002B0704782B001904FF48032019B02FA8C
:1007B40003F3184602B0704710B588B00390029155
:1007C4000192039B1B791A4613465B0013449B005A
:1007D4006F4A13440693029B002B03D16D494A20B0
:1007E400FFF784FE019B002B03D16A494B20FFF7DE
:1007F4007DFE069B1B7A002B03D008230593059BE3
:10080400C2E0039B1B68644A93420FD1029B9B780E
:10081400012B63D0029B9B78002B5FD0029B9B78BB
:10082400022B5BD0029B9B78032B57D0039B1B6846
:100834005A4A93420FD1029B9B78012B4ED0029BC4
:100844009B78002B4AD0029B9B78022B46D0029BBC
:100854009B78032B42D0039B1B68514A93420FD1D0
:10086400029B9B78012B39D0029B9B78002B35D0BF
:10087400029B9B78022B31D0029B9B78032B2DD0BB
:10088400039B1B68474A93420FD1029B9B78012B21
:1008940024D0029B9B78002B20D0029B9B78022BB8
:1008A4001CD0029B9B78032B18D0039B1B683E4AE9
:1008B40093420FD1029B9B78012B0FD0029B9B7814
:1008C400002B0BD0029B9B78022B07D0029B9B78BA
:1008D400032B03D02F495F20FFF708FE069B019AE4
:1008E4001A60029B5A68069B5A6000238DF81F30D9
:1008F40010E0039B1C689DF81F301846FFF748FF63
:10090400034619462046FFF78BFE9DF81F3001333E
:100914008DF81F30039B5B799DF81F209A42E8D322
:10092400039B1B681846FFF737FE03461A46029BD3
:10093400DB7819461046FFF737FE039B1B68184601
:10094400FFF72AFE03461846FFF74EFE039B1A687C
:10095400029B5B7819461046FFF7CAFE039B1A6890
:10096400029B9B7819461046FFF7D7FE039B1A6833
:10097400029B1B7819461046FFF7E4FE069B0122F2
:100984001A7200230593059B184608B010BD00BFDA
:1009940024000020D4120000008000400090004099
:1009A40000A0004000A0014000B0014000B583B0A9
:1009B4000190019B1B791946114A0B465B000B44BD
:1009C4009B00134408331B78012B03D00D498F205F
:1009D400FFF78CFD019B1B6800211846FFF712FEF0
:1009E400019B1B791946064A0B465B000B449B008E
:1009F4001344083302221A7000BF03B05DF804FBED
:100A040024000020D412000000B583B00190019BA3
:100A14001B7919460B4A0B465B000B449B0013449D
:100A240008331B78002B03D10749B320FFF75EFD81
:100A3400019B1B680C211846FFF7E4FD00BF03B0BF
:100A44005DF804FB24000020D412000010B586B029
:100A5400039001921A460B468DF80B3013468DF81D
:100A64000A309DF80B301846FFF79CFE05909DF860
:100A74000A30002B12D0039B1C689DF80B301846DB
:100A8400FFF786FE034619462046FFF7C9FD039B80
:100A94001B6805991846FFF707FE05E0039B1B68D2
:100AA40005991846FFF70AFE039B1B689DF80B1077
:100AB400019A1846FFF75BFE00BF06B010BD00B5F3
:100AC40085B0039001921A460B468DF80B301346FD
:100AD400ADF80830039B18689DF80B304FF4807212
:100AE4009A409DF80B30012101FA03F31343194690
:100AF400FFF7CBFD039B1B68BDF808201146184681
:100B0400FFF7B5FD9DF818309DF80B10019A039876
:100B1400FFF79CFF00BF05B05DF804FB00B587B08C
:100B24000390029113468DF8073000238DF8173097
:100B340030E09DF817301846FFF72AFE0346ADF85B
:100B440014309DF817301846FFF72CFE0490BDF8BA
:100B5400143019460398FFF778FD0346002B14D090
:100B640004990398FFF7B4FD0346002B0DD0BDF89C
:100B7400143019460398FFF753FD029B1B68029A31
:100B84005168BDF81420104698479DF8173001337A
:100B94008DF817309DF817209DF807309A42C8D376
:100BA40000BF00BF07B05DF804FB000008B50422D5
:100BB40002490348FFF7B2FF00BF08BD240000202C
:100BC4000080004082B00190019BD3F81035DBB265
:100BD400184602B0704700002DE9F04F87B001902D
:100BE4008DF803109DF803100591019900200E461D
:100BF4000746304639464FF0000A4FF0000B4FEAE3
:100C0400411B4BEAD06B4FEA401A50465946821BAF
:100C140061EB07034FF000004FF00001990041EA37
:100C24009271900002460B4612EB060843EB07094B
:100C34004FF000024FF000034FEAC91343EA586330
:100C44004FEAC8129046994642464B460599C1F16F
:100C54002006A1F1200022FA01F403FA06F6344337
:100C640023FA00F0044323FA01F5CDE90245DDE956
:100C74000223012B04D3054940F2BE20FFF736FCC2
:100C8400029B184607B0BDE8F08F00BF14130000A4
:100C940000B583B001900091019B1B681846FFF7D3
:100CA40091FF034619460098FFF796FF034618463E
:100CB40003B05DF804FB000000B583B00190019B14
:100CC4001B682F2B04D90B4940F2CD10FFF70EFC03
:100CD400019B1B681F2B02D84FF0A04306E0019B29
:100CE4001B6803F01F02019B1A60034B184603B0F4
:100CF4005DF804FB441300000003005000B585B008
:100D04000190084611461A4603468DF803300B46F7
:100D14008DF8023013468DF8013001AB1846FFF709
:100D2400CBFF03909DF803209DF802305B001A432B
:100D34009DF801309B001A439DF818301B0242EACB
:100D440003019DF81C301B04019A1943039B02F50F
:100D5400E07243F8221000BF05B05DF804FB00B553
:100D640085B0039000230193002300930023012204
:100D740001210398FFF7C2FF00BF05B05DF804FB33
:100D840000B585B0019001AB1846FFF795FF0390BD
:100D9400039BD3F804350293029BDA43019B0121A0
:100DA40001FA03F31A40039BC3F80825019B0122AF
:100DB4009A40029B1A40039BC3F80C2500BF05B060
:100DC4005DF804FB08B50D20FFF7C9FF00F002F839
:100DD400FEE7000000B587B000238DF80C30032334
:100DE4008DF80E3000238DF80D3006238DF80F306A
:100DF4000023049303AB174A19461748FFF7DCFC9A
:100E04000346164A1360154B1B680593059B002B7C
:100E140004D0134A69210598FFF730FB4FF4FA71A7
:100E24000D48FFF735FF03460E4A13600D4B1A6851
:100E340001230093012300210748FFF740FE0648E1
:100E4400FFF7E2FD0448FFF7B1FD00BF07B05DF80E
:100E540004FB00BF6D0E0000B4130000300000203E
:100E6400741300003400002000B583B003460091E1
:100E7400ADF80630BDF80630B3F5A07F02D10D20E1
:100E8400FFF77EFF00BF03B05DF804FBBFF34F8F95
:100E940000BF074BDB6803F4E0620549054B1343CD
:100EA400CB60BFF34F8F00BF00BF00BFFCE700BFA4
:100EB40000ED00E00400FA05024B034A1A6000BF8B
:100EC400704700BF000000200090D00308B500F078
:100ED40027F90346002B0ED04FF080430022C3F8BD
:100EE4000C214FF080430022C3F810214FF08043BF
:100EF4000022C3F8382500F037F90346002B76D0DA
:100F04004FF080537D4AD3F80434C2F820354FF0B3
:100F140080537A4AD3F80834C2F824354FF080530A
:100F2400764AD3F80C34C2F828354FF08053734A0C
:100F3400D3F81034C2F82C354FF080536F4AD3F8ED
:100F44001434C2F830354FF080536C4AD3F8183457
:100F5400C2F834354FF08053684AD3F81C34C2F8D1
:100F640040354FF08053654AD3F82034C2F84435F5
:100F74004FF08053614AD3F82434C2F848354FF017
:100F840080535E4AD3F82834C2F84C354FF080536E
:100F94005A4AD3F82C34C2F850354FF08053574A8C
:100FA400D3F83034C2F854354FF08053534AD3F851
:100FB4003434C2F860354FF08053504AD3F8383493
:100FC400C2F864354FF080534C4AD3F83C34C2F82D
:100FD40068354FF08053494AD3F84034C2F86C3531
:100FE4004FF08053454AD3F84434C2F8703500F0CA
:100FF400DFF80346002B02D0414B424A1A6000F04E
:10100400E9F80346002B03D03F4BFB22C3F8182515
:1010140000F0F2F80346002B0AD03C4B1B6823F087
:101024000F023B4B1B6803F00F03384913430B605B
:1010340000F0F4F80346002B03D0364B4FF4007253
:101044001A6000F0FDF80346002B0DD04FF08043EA
:10105400D3F8003403F00103002B05D04FF0804394
:101064006FF00102C3F800242B4BD3F888302A4ACE
:1010740043F47003C2F88830BFF34F8F00BFBFF34F
:101084006F8F00BF4FF01023D3F80032002B05DB25
:101094004FF01023D3F80432002B2BDA1F4B01221C
:1010A400C3F8042500BF1D4BD3F80034002BFAD03D
:1010B4004FF010231222C3F8002200BF174BD3F8BD
:1010C4000034002BFAD04FF010231222C3F804226C
:1010D40000BF124BD3F80034002BFAD00F4B002280
:1010E400C3F8042500BF0D4BD3F80034002BFAD00D
:1010F400FFF7CCFEFFF7E0FE00BF08BD00C00040D4
:101104008C5600404881030000F00040E40E00408B
:10111400580200104096024000ED00E000E001405B
:101124000F4B1B68082B17D10E4B1B68002B01D1EA
:10113400012312E00B4B1B68012B01D101230CE0AE
:10114400084B1B68022B01D1012306E0054B1B68E9
:10115400032B01D1012300E001231846704700BF8F
:1011640030010010340100100F4B1B68082B17D1FD
:101174000E4B1B68002B01D1012312E00B4B1B68A3
:10118400012B01D101230CE0084B1B68022B01D178
:10119400012306E0054B1B68032B01D1012300E06A
:1011A40001231846704700BF3001001034010010BD
:1011B400064B1B68082B05D1054B1B68002B01D17E
:1011C400012300E000231846704700BF30010010DF
:1011D40034010010064B1B68082B05D1054B1B6816
:1011E400002B01D1012300E000231846704700BF03
:1011F4003001001034010010064B1B68082B05D188
:10120400054B1B68002B01D1012300E00023184685
:10121400704700BF3001001034010010064B1B68FA
:10122400082B05D1054B1B68002B01D1012300E0DD
:1012340000231846704700BF30010010340100102D
:101244000F4B1B68082B17D10E4B1B68002B01D1C9
:10125400012312E00B4B1B68012B01D101230CE08D
:10126400084B1B68022B01D1012306E0054B1B68C8
:10127400032B01D1012300E001231846704700BF6E
:101284003001001034010010082938BF70470022D3
:10129400C0E9002140F23801C2F200010860704741
:1012A4002E2E2F2E2E2F2E2E2F2E2E2F2E2E2F2E55
:1012B4002E2F696E746567726174696F6E2F6E721A
:1012C40066782F6E7266785F676C75652E680000AD
:1012D400433A5C6E63735C6E52463553444B31360D
:1012E4003030393861303865325C6D6F64756C65E7
:1012F400735C6E7266785C647269766572735C7333
:1013040072635C6E7266785F74696D65722E6300D9
:101314002E2E2F2E2E2F2E2E2F2E2E2F2E2E2F2EE4
:101324002E2F6D6F64756C65732F6E7266782F68DF
:10133400616C2F6E72665F74696D65722E68000051
:101344002E2E2F2E2E2F2E2E2F2E2E2F2E2E2F2EB4
:101354002E2F6D6F64756C65732F6E7266782F68AF
:10136400616C2F6E72665F6770696F2E6800000093
:10137400433A5C6E63735C6E52463553444B31366C
:101384003030393861303865325C6578616D706C45
:1013940065735C6D795F776F726B73706163655CA5
:1013A40074696D65725C6D61696E2E630000000086
:0813B40000800040000400006D
:0413BC000090D003CA
:04000003000003896D
:00000001FF
