:100000000000042089030000710300007303000056
:100010007503000077030000790300000000000072
:100020000000000000000000000000007B03000052
:100030007D030000000000007F030000810300003A
:100040008303000083030000830300008303000098
:100050008303000083030000C10E0000830300003F
:100060008303000083030000830300008303000078
:100070008303000083030000830300008303000068
:100080008303000083030000830300008303000058
:100090008303000083030000830300008303000048
:1000A0008303000083030000830300008303000038
:1000B0008303000083030000000000000000000034
:1000C0008303000083030000830300008303000018
:1000D0008303000083030000830300008303000008
:1000E000830300008303000083030000000000007E
:1000F00000000000830300000000000083030000F4
:1001000000000000000000000000000000000000EF
:1001100000000000000000000000000000000000DF
:1001200000000000000000000000000000000000CF
:1001300000000000000000000000000000000000BF
:1001400000000000000000000000000000000000AF
:10015000000000000000000000000000000000009F
:10016000000000000000000000000000000000008F
:10017000000000000000000000000000000000007F
:10018000000000000000000000000000000000006F
:10019000000000000000000000000000000000005F
:1001A000000000000000000000000000000000004F
:1001B000000000000000000000000000000000003F
:1001C000000000000000000000000000000000002F
:1001D000000000000000000000000000000000001F
:1001E000000000000000000000000000000000000F
:1001F00000000000000000000000000000000000FF
:100200003A493B480A1A02D0072291438D463949A0
:1002100039480A1A06D00722914381F3098802223D
:1002200082F3148835483649364A00F041F836489A
:100230003649374A00F03CF836483749374A00F02B
:1002400037F837483749384A00F032F837483849E4
:10025000384A00F02DF838483849394A00F028F873
:1002600038483949394A00F023F8394839490022D9
:1002700000F036F838483949002200F031F83848A3
:100280003849091A01F062FA374A90472548264949
:10029000884205D00268043003B4904703BCF7E7F6
:1002A00000208646EC4600200021304A9047FEE7B9
:1002B000884214D0521A12D003460B43134303242E
:1002C000234206D1036804300B600431043AF9D1AB
:1002D0007047037801300B700131013AF9D1704752
:1002E000884202D002700130FAE770470000042013
:1002F00000E003200000042000000420F0180000AB
:100300000000002004000020E4030000E4030000DB
:10031000CC170000F01800000000002000000020B2
:10032000CC170000CC170000CC170000CC17000041
:10033000CC170000CC170000CC170000CC17000031
:10034000F0180000F4180000040000200400002051
:10035000040000208400002084000020840000208D
:100360008400002084200020B1030000B5120000AA
:10037000FEE7FEE7FEE7FEE7FEE7FEE7FEE7FEE755
:10038000FEE7FEE700F002B8FFF7FCBF0F484FF0B2
:100390000701884385460E4880470E48016841F4AE
:1003A00070010160BFF34F8FBFF36F8FFFF728BF5E
:1003B00009480A490A4A884207D0521A05D00378E8
:1003C00001300B700131013AF9D17047000004206F
:1003D0009113000088ED00E0CC1700000000002021
:0403E00000000020F9
:1003E40086B003900291019201238DF817309DF895
:1003F4001730214A039B13601F4A029B53601E4A15
:10040400019B9360039B44F20102934213D0039B2C
:1004140044F20202934221D1019B174AD360164B46
:10042400DB681B881A46144B9A61134BDB685B68C4
:10043400114AD36112E0019B0F4A13610E4B1B69F1
:100444009B680D4A53610C4B1B691B680A4A9361F4
:10045400094B1B695B68084AD36100BF72B600BFD1
:1004640000BF9DF81730DBB2002BFAD162B600BF93
:1004740000BF06B0704700BF0400002000B583B081
:1004840002900091019244F2010071466A4600F024
:1004940003F803B000BD00BF00B587B0039002911C
:1004A400019272B600BF039B44F20102934207D04B
:1004B400039B44F20202934205D1019B059303E09E
:1004C400019B049300E000BF074B1B6803F001038A
:1004D400002B00D000BE019A02990398FFF780FF19
:1004E40000BF07B05DF804FBF0ED00E000B585B097
:1004F40003460091ADF80630BDF80630ADF808307B
:10050400009B039302AB1A46002144F20200FFF75A
:10051400C3FF00BF05B05DF804FB000082B00346D2
:100524008DF807309DF8073003F01F0205499DF947
:1005340007305B09012000FA02F241F8232000BFD2
:1005440002B0704700E100E082B0034600918DF8EC
:1005540007309DF90730002B0CDA009BDAB20C4906
:100564009DF8073003F00F03043B5201D2B20B4451
:100574001A7609E0009BDAB206499DF90730520168
:10058400D2B20B4483F8002300BF02B0704700BF0F
:1005940000ED00E000E100E000B583B003460A4648
:1005A4008DF8073013468DF806309DF80630072B7A
:1005B40003D908496B20FFF799FF9DF806209DF9A0
:1005C400073011461846FFF7BFFF00BF03B05DF8C0
:1005D40004FB00BFCC17000000B583B003468DF8C0
:1005E40007309DF907301846FFF798FF00BF03B0A6
:1005F4005DF804FB00B583B00346ADF80630BDF8E2
:100604000630184600F026F803461B68012B0CBF81
:1006140001230023DBB2184603B05DF804FB00B5E8
:1006240085B00346ADF80630BDF80630184600F034
:1006340011F803461A4600231360BDF80630184625
:1006440000F008F803461B680393039B00BF05B042
:100654005DF804FB82B00346ADF80630BDF8063001
:1006640003F1804303F5C043184602B0704700000D
:1006740082B00190034A019BC2F8043300BF02B068
:10068400704700BF0060004082B00190034BD3F874
:100694000423019B1340184602B0704700600040D9
:1006A40082B00190084A019B03F5A27352F82330EB
:1006B400054943F00102019B03F5A27341F823208D
:1006C40000BF02B0704700BF0060004084B00390D8
:1006D400029113468DF80730144A039B03F5A27365
:1006E40052F82330114923F44F3323F44073039A0F
:1006F40002F5A27241F822300C4A039B03F5A2735F
:1007040052F82320029B1B0203F47C519DF807300E
:100714001B0403F440330B4304491A43039B03F5BE
:10072400A27341F8232000BF04B07047006000406A
:1007340082B00190054A019B03F5A27352F823305D
:100744001B0A03F03F03184602B0704700600040E4
:1007540082B00190064A019B03F5A27352F823303C
:100764001B0C03F00303DBB2184602B0704700BF52
:100774000060004000B583B00190019B1B682F2BE3
:1007840004D90B4940F2CD10FFF7B0FE019B1B6862
:100794001F2B02D84FF0A04306E0019B1B6803F017
:1007A4001F02019B1A60034B184603B05DF804FB5B
:1007B400FC1700000003005000B585B00190084606
:1007C40011461A4603468DF803300B468DF8023065
:1007D40013468DF8013001AB1846FFF7CBFF0390A9
:1007E4009DF803209DF802305B001A439DF8013008
:1007F4009B001A439DF818301B0242EA03019DF83E
:100804001C301B04019A1943039B02F5E07243F860
:10081400221000BF05B05DF804FB00B585B003905D
:100824000B468DF80B309DF80B300022019200220C
:100834000092002200210398FFF7BEFF00BF05B01D
:100844005DF804FB00B585B0019001AB1846FFF7D5
:1008540091FF0390019A039B02F5E07253F8223052
:1008640023F002030293019A039B02F5E0720299BA
:1008740043F8221000BF05B05DF804FB00B585B055
:1008840001900B468DF8033001AB1846FFF772FF59
:100894000390019A039B02F5E07253F82230019A07
:1008A40023F44031039B02F5E07243F82210019ACD
:1008B400039B02F5E07253F822109DF803301B04E9
:1008C400019A1943039B02F5E07243F8221000BF1A
:1008D40005B05DF804FB00B585B0019001AB184686
:1008E400FFF748FF0390039800F020F80246019BAD
:1008F40022FA03F303F00103184605B05DF804FB84
:1009040000B585B0019001AB1846FFF733FF0390A3
:10091400019A039B02F5E07253F822301B0C03F09A
:100924000303DBB2184605B05DF804FB82B0019006
:10093400019BD3F81035184602B0704700B589B052
:10094400039002910192184A05AB92E8030083E8F0
:100954000300039A029B1344022B04D9134940F267
:10096400FD20FFF7C3FD039B079311E0079B9B004A
:1009740020336B4453F80C3C1846FFF7D7FF02466C
:10098400019B1A60019B04330193079B0133079376
:10099400039A029B1344079A9A42E7D300BF00BF0D
:1009A40009B05DF804FB00BF2C180000FC17000020
:1009B40084B001900091009B0393019BDB08029398
:1009C400019B03F0070301930122019B02FA03F345
:1009D4000399029A0A4412781340184604B07047E7
:1009E40084B001900091009B0393019BDB08029368
:1009F400019B03F007030193039A029B13441B78A2
:100A04005AB20121019B01FA03F35BB2134359B2B9
:100A1400039A029B1344CAB21A7000BF04B0704711
:100A240082B001900C4A019B1344243393F90030A3
:100A3400002B09DB084A019B1344243393F900304B
:100A4400072B01DC012300E0002303F00103DBB2E8
:100A5400184602B0704700BF2400002082B0019005
:100A6400064A019B1344243393F90030072BCCBF6F
:100A740001230023DBB2184602B070472400002093
:100A840082B00190064A019B1344243393F9003049
:100A9400DB43DBB2DB09DBB2184602B0704700BFB0
:100AA4002400002084B00390029101928DF8033059
:100AB400029B59B20E4A039B134424330A461A700C
:100AC4000B49029B019A41F823209DF8033083F0DF
:100AD4000103DBB2002B08D0029B083B039A51B2FE
:100AE400034A13440A4683F8542000BF04B07047F5
:100AF4002400002082B00190044A019B1344243353
:100B0400FF221A7000BF02B0704700BF240000200B
:100B140000B583B0019004490198FFF761FF00BF5D
:100B240003B05DF804FB00BF7900002082B001909F
:100B3400044A019B1344243393F90030184602B04D
:100B4400704700BF2400002082B00190034A019B3B
:100B540052F82330184602B0704700BF240000202A
:100B640000B589B00390029113468DF80730FF2336
:100B74008DF81F309DF80730002B01D0002300E0D2
:100B8400082305939DF80730002B01D0082300E0CB
:100B940009230493059B069314E00F4A069B52F81D
:100BA4002330B3F1FF3F0AD19DF80730029A06992A
:100BB4000398FFF777FF069B8DF81F3006E0069B2E
:100BC40001330693069A049B9A42E6D39DF91F309B
:100BD400184609B05DF804FB2400002082B00346E7
:100BE4008DF807309DF80730094A4FF0FF3142F87D
:100BF40023109DF80730072B07D99DF80730083BD1
:100C0400034A1344FF2283F8542000BF02B0704704
:100C14002400002000B583B0254B93F85B30002BF3
:100C240003D008230093009B3EE000238DF8073097
:100C340009E09DF807301846FFF75CFF9DF8073080
:100C440001338DF807309DF807302F2BF1D900239D
:100C54008DF8073009E09DF807301846FFF7BEFF0E
:100C64009DF8073001338DF807309DF80730082BC5
:100C7400F1D9062200210F4800F076FD0621062056
:100C8400FFF78AFC0620FFF7A7FC4FF4BE70FFF7BE
:100C9400C6FC4FF00040FFF7EBFC054B012283F844
:100CA4005B2000230093009B184603B05DF804FB0F
:100CB400240000207900002000B587B00390029141
:100CC4000192039B2F2B04D9364940F20720FFF7EA
:100CD4000DFC002305930398FFF7D2FE0346002B77
:100CE40002D00823059357E0029B9B78C3F340038B
:100CF400DBB21A4601990398FFF732FF03468DF8D9
:100D040013309DF91330B3F1FF3F43D0029B9B781E
:100D1400C3F38003DBB283F00103DBB2002B13D0F7
:100D2400029B9B7803F00103DBB2002B03D00398F2
:100D3400FFF788FD05E0029B5B7819460398FFF7EF
:100D44006CFD0398FFF7E4FE029B9B7803F002031B
:100D5400DBB2002B08D09DF91300029B1B781A46C6
:100D64000399FFF7B3FC17E09DF91330083B0E4AD3
:100D7400134493F95410029B1B789B015AB29DF9BA
:100D84001330083B0A4351B2074A13440A4683F816
:100D9400542001E004230593059B184607B05DF831
:100DA40004FB00BF341800002400002000B589B003
:100DB40001900B468DF80330019B2F2B04D93D493C
:100DC40040F23720FFF792FB0198FFF759FE0346E4
:100DD400002B04D137494FF40E70FFF787FB0198BD
:100DE400FFF73CFE0346002B2FD00198FFF79EFE31
:100DF4000346083B304A134493F954308DF80F30BE
:100E04009DF80F309B098DF80E309DF80E30032BA2
:100E14000BD10198FFF75FFD0346002B01D003239C
:100E240000E002238DF81F3008E09DF80E30012BFE
:100E340001D1022300E003238DF81F309DF81F30F9
:100E440019460198FFF71AFD30E00198FFF7E8FD15
:100E54000346002B2AD00198FFF768FE0346069349
:100E6400069B9BB240339BB29B00ADF81630069BA9
:100E74001846FFF715FCBDF816301846FFF7CFFBF0
:100E84009DF80330002B11D00198FFF74FFE034665
:100E94001846FFF759FE0490049B002B06D001224C
:100EA400069B02FA03F31846FFF7E2FB00BF09B002
:100EB4005DF804FB341800002400002000B599B04C
:100EC4000023179306AB00221A605A604FF4807314
:100ED400ADF85630012314930023169321E0BDF896
:100EE40056301846FFF786FB0346002B0ED01498A5
:100EF400FFF7CAFB0346002B08D0BDF8563018464E
:100F0400FFF78DFB179A149B13431793149B5B00F5
:100F14001493BDF856300433ADF85630169B0133A4
:100F24001693169B072BDAD94FF4BE70FFF762FBBA
:100F34000346002B0DD04FF4BE70FFF770FB179BD8
:100F440043F00043179306AB1A4602210020FFF733
:100F5400F5FC179BDBB2002B29D00123149300234B
:100F6400169321E0149A179B1340002B16D0169861
:100F7400FFF7DEFB11901698FFF7EAFB03468DF8A6
:100F840043301698FFF7E0FD0F900F9B002B05D020
:100F94009DF843200F9B114611989847149B5B00C2
:100FA4001493169B01331693169B072BDAD9179BC0
:100FB400002B80F2F08000238DF84B3004AB00222C
:100FC4001A605A60002313930AE0139B9B0060335A
:100FD4006B444FF0FF3243F8582C139B01331393A7
:100FE400139B012BF1D900238DF84B30002316936A
:100FF40078E06B4A169B1344543393F900308DF810
:101004003B309DF83B3023F0C0030D93644A169B9C
:101014001344543393F90030B3F1FF3F5FD002AB74
:1010240019460D98FFF7C4FC0346002B57D09DF8D2
:101034003B309B098DF833300D98FFF777FD03465D
:101044001846FFF781FD0B900B9B002B03D19DF8F5
:101054003330032B43D19DF83330032B04D104AB3D
:1010640019460D98FFF7BCFC0D98FFF749FC0346A1
:101074008DF82B3006AB19460D98FFF799FC0990B3
:10108400099B002B03D09DF82B30022B06D0099B23
:10109400002B24D19DF82B30032B20D19DF8333025
:1010A400032B13D19DF82B30022B01D1032300E035
:1010B40002238DF823309DF8233019460D98FFF74D
:1010C400DDFB9DF84B3001338DF84B300B9B002B2F
:1010D40005D09DF833200B9B11460D989847169B1D
:1010E40001331693169B002B83D09DF84B30002BB5
:1010F4004CD001238DF84A306B461A460221002059
:10110400FFF71CFC0023139314E0139B9B00603334
:101114006B4453F8602C139B9B0060336B4453F86F
:10112400483C9A4203D000238DF84A3005E0139BD3
:1011340001331393139B012BE7D99DF84A30002BFD
:1011440003D000238DF84B3020E0002313931AE0E2
:10115400139B9B0060336B4453F8602C139B9B00E0
:1011640060336B4443F8482C139B9B0060336B44FF
:1011740053F8502C139B9B0060336B4443F8582C5A
:10118400139B01331393139B012BE1D99DF84B302F
:10119400002B7FF428AF00BF19B05DF804FB00BF3B
:1011A4002400002000B583B00190019B1B682F2B05
:1011B40004D90B4940F2CD10FFF798F9019B1B6845
:1011C4001F2B02D84FF0A04306E0019B1B6803F0DD
:1011D4001F02019B1A60034B184603B05DF804FB21
:1011E400781800000003005000B585B0019008464F
:1011F40011461A4603468DF803300B468DF802302B
:1012040013468DF8013001AB1846FFF7CBFF03906E
:101214009DF803209DF802305B001A439DF80130CD
:101224009B001A439DF818301B0242EA03019DF803
:101234001C301B04019A1943039B02F5E07243F826
:10124400221000BF05B05DF804FB00B585B0039023
:10125400002301930023009300230122012103981A
:10126400FFF7C2FF00BF05B05DF804FB00B585B011
:10127400019001AB1846FFF795FF0390039BD3F849
:1012840004350293029BDA43019B012101FA03F323
:101294001A40039BC3F80825019B01229A40029B34
:1012A4001A40039BC3F80C2500BF05B05DF804FB8E
:1012B40008B500F001F8FEE700B585B0FFF7AAFC19
:1012C4000390039B0293029B002B04D0164A5A21DD
:1012D4000298FFF7D3F80D20FFF7B7FF9DF802300F
:1012E40043F002038DF8023002238DF8003003230B
:1012F4008DF801306B460D4A19460B20FFF7DCFCD4
:101304000390039B0193019B002B04D0064A6721A1
:101314000198FFF7B3F801210B20FFF747FD00BF49
:1013240005B05DF804FB00BFA818000035130000E9
:1013340000B583B001900B468DF803300D20FFF704
:1013440095FF00BF03B05DF804FB0000BFF34F8FAF
:1013540000BF074BDB6803F4E0620549054B134308
:10136400CB60BFF34F8F00BF00BF00BFFCE700BFDF
:1013740000ED00E00400FA05024B034A1A6000BFC6
:10138400704700BF000000200090D00308B500F0B3
:1013940027F90346002B0ED04FF080430022C3F8F8
:1013A4000C214FF080430022C3F810214FF08043FA
:1013B4000022C3F8382500F037F90346002B76D015
:1013C4004FF080537D4AD3F80434C2F820354FF0EF
:1013D40080537A4AD3F80834C2F824354FF0805346
:1013E400764AD3F80C34C2F828354FF08053734A48
:1013F400D3F81034C2F82C354FF080536F4AD3F829
:101404001434C2F830354FF080536C4AD3F8183492
:10141400C2F834354FF08053684AD3F81C34C2F80C
:1014240040354FF08053654AD3F82034C2F8443530
:101434004FF08053614AD3F82434C2F848354FF052
:1014440080535E4AD3F82834C2F84C354FF08053A9
:101454005A4AD3F82C34C2F850354FF08053574AC7
:10146400D3F83034C2F854354FF08053534AD3F88C
:101474003434C2F860354FF08053504AD3F83834CE
:10148400C2F864354FF080534C4AD3F83C34C2F868
:1014940068354FF08053494AD3F84034C2F86C356C
:1014A4004FF08053454AD3F84434C2F8703500F005
:1014B400DFF80346002B02D0414B424A1A6000F089
:1014C400E9F80346002B03D03F4BFB22C3F8182551
:1014D40000F0F2F80346002B0AD03C4B1B6823F0C3
:1014E4000F023B4B1B6803F00F03384913430B6097
:1014F40000F0F4F80346002B03D0364B4FF400728F
:101504001A6000F0FDF80346002B0DD04FF0804325
:10151400D3F8003403F00103002B05D04FF08043CF
:101524006FF00102C3F800242B4BD3F888302A4A09
:1015340043F47003C2F88830BFF34F8F00BFBFF38A
:101544006F8F00BF4FF01023D3F80032002B05DB60
:101554004FF01023D3F80432002B2BDA1F4B012257
:10156400C3F8042500BF1D4BD3F80034002BFAD078
:101574004FF010231222C3F8002200BF174BD3F8F8
:101584000034002BFAD04FF010231222C3F80422A7
:1015940000BF124BD3F80034002BFAD00F4B0022BB
:1015A400C3F8042500BF0D4BD3F80034002BFAD048
:1015B400FFF7CCFEFFF7E0FE00BF08BD00C000400F
:1015C4008C5600404881030000F00040E40E0040C7
:1015D400580200104096024000ED00E000E0014097
:1015E4000F4B1B68082B17D10E4B1B68002B01D126
:1015F400012312E00B4B1B68012B01D101230CE0EA
:10160400084B1B68022B01D1012306E0054B1B6824
:10161400032B01D1012300E001231846704700BFCA
:1016240030010010340100100F4B1B68082B17D138
:101634000E4B1B68002B01D1012312E00B4B1B68DE
:10164400012B01D101230CE0084B1B68022B01D1B3
:10165400012306E0054B1B68032B01D1012300E0A5
:1016640001231846704700BF3001001034010010F8
:10167400064B1B68082B05D1054B1B68002B01D1B9
:10168400012300E000231846704700BF300100101A
:1016940034010010064B1B68082B05D1054B1B6851
:1016A400002B01D1012300E000231846704700BF3E
:1016B4003001001034010010064B1B68082B05D1C3
:1016C400054B1B68002B01D1012300E000231846C1
:1016D400704700BF3001001034010010064B1B6836
:1016E400082B05D1054B1B68002B01D1012300E019
:1016F40000231846704700BF300100103401001069
:101704000F4B1B68082B17D10E4B1B68002B01D104
:10171400012312E00B4B1B68012B01D101230CE0C8
:10172400084B1B68022B01D1012306E0054B1B6803
:10173400032B01D1012300E001231846704700BFA9
:101744003001001034010010082938BF704700220E
:10175400C0E9002140F28001C2F200010860704734
:1017640000220B0011001A0084465AB3830704D0E8
:1017740000F8011B013AF9D124E0C9B241EA012180
:1017840041EA0141202A11D3203A2DE9F0030B4606
:101794000C460D460E460F4688468946A0E8FA03D5
:1017A400203AFBD2BDE8F00320320BD0042A05D343
:1017B40040F8041B043A05D0042AF9D200F8011BAE
:0817C400013AFBD160467047B9
:1017CC002E2E2F2E2E2F2E2E2F2E2E2F2E2E2F2E28
:1017DC002E2F696E746567726174696F6E2F6E72ED
:1017EC0066782F6E7266785F676C75652E68000080
:1017FC002E2E2F2E2E2F2E2E2F2E2E2F2E2E2F2EF8
:10180C002E2F6D6F64756C65732F6E7266782F68F2
:10181C00616C2F6E72665F6770696F2E68000000D6
:10182C000000005000030050433A5C6E63735C6E22
:10183C0052463553444B3136303039386130386587
:10184C00325C6D6F64756C65735C6E7266785C642B
:10185C007269766572735C7372635C6E7266785FC4
:10186C006770696F74652E63000000002E2E2F2E9A
:10187C002E2F2E2E2F2E2E2F2E2E2F2E2E2F6D6FF7
:10188C0064756C65732F6E7266782F68616C2F6E41
:10189C0072665F6770696F2E68000000433A5C6E79
:1018AC0063735C6E52463553444B313630303938A5
:1018BC0061303865325C6578616D706C65735C6D38
:1018CC00795F776F726B73706163655C6770696F5A
:1018DC0074655F696E746572727570745C6D616944
:0418EC006E2E6300F9
:0418F0000090D00391
:04000003000003896D
:00000001FF
