:1000000000000420190200000102000003020000A9
:1000100005020000070200000902000000000000C5
:100020000000000000000000000000000B020000C3
:100030000D020000000000000F020000110200008D
:10004000130200001302000013020000130200005C
:10005000130200001302000013020000130200004C
:10006000130200001302000013020000130200003C
:10007000130200001302000013020000130200002C
:10008000130200001302000013020000130200001C
:10009000130200001302000013020000130200000C
:1000A00013020000130200001302000013020000FC
:1000B0001302000013020000000000000000000016
:1000C00013020000130200001302000013020000DC
:1000D00013020000130200001302000013020000CC
:1000E00013020000130200001302000000000000D1
:1000F00000000000130200000000000013020000D6
:1001000000000000000000000000000000000000EF
:1001100000000000000000000000000000000000DF
:1001200000000000000000000000000000000000CF
:1001300000000000000000000000000000000000BF
:1001400000000000000000000000000000000000AF
:10015000000000000000000000000000000000009F
:10016000000000000000000000000000000000008F
:10017000000000000000000000000000000000007F
:10018000000000000000000000000000000000006F
:10019000000000000000000000000000000000005F
:1001A000000000000000000000000000000000004F
:1001B000000000000000000000000000000000003F
:1001C000000000000000000000000000000000002F
:1001D000000000000000000000000000000000001F
:1001E000000000000000000000000000000000000F
:1001F00000000000000000000000000000000000FF
:10020000FEE7FEE7FEE7FEE7FEE7FEE7FEE7FEE7C6
:10021000FEE7FEE700F002B8FFF7FCBF0F484FF023
:100220000701884385460E4880470E48016841F41F
:1002300070010160BFF34F8FBFF36F8F00F01AB8EA
:1002400009480A490A4A884207D0521A05D0037859
:1002500001300B700131013AF9D1704700000420E0
:100260001D06000088ED00E0080E000000000020E0
:10027000000000203A493B480A1A02D00722914365
:100280008D46394939480A1A06D00722914381F32D
:100290000988022282F3148835483649364A00F02C
:1002A00041F836483649374A00F03CF83648374975
:1002B000374A00F037F837483749384A00F032F803
:1002C00037483849384A00F02DF838483849394A13
:1002D00000F028F838483949394A00F023F83948FD
:1002E0003949002200F036F838483949002200F038
:1002F00031F838483849091A00F035FD374A904737
:1003000025482649884205D00268043003B4904746
:1003100003BCF7E700208646EC4600200021304A67
:100320009047FEE7884214D0521A12D003460B437E
:1003300013430324234206D1036804300B600431C5
:10034000043AF9D17047037801300B700131013A5A
:10035000F9D17047884202D002700130FAE7704745
:100360000000042000E0032000000420000004201E
:10037000900E00000000002010000020E4030000A8
:10038000E4030000080E0000900E000000000020B2
:1003900000000020080E0000080E0000080E0000FB
:1003A000080E0000080E0000080E0000080E0000F5
:1003B000080E00008F0E0000A00E000010000020AC
:1003C0001000002010000020F8040020F804002095
:1003D000F8040020F8040020F82400204102000066
:0403E000890500008B
:1003E40000B583B00190019B1B682F2B04D90B49E6
:1003F40040F2CD1000F066FB019B1B681F2B02D856
:100404004FF0A04306E0019B1B6803F01F02019B11
:100414001A60034B184603B05DF804FB080E000095
:100424000003005000B585B00190084611461A46F5
:1004340003468DF803300B468DF8023013468DF8D1
:10044400013001AB1846FFF7CBFF03909DF8032062
:100454009DF802305B001A439DF801309B001A435B
:100464009DF818301B0242EA03019DF81C301B045E
:10047400019A1943039B02F5E07243F8221000BF6E
:1004840005B05DF804FB00B585B00390002301932B
:10049400002300930023012201210398FFF7C2FFE8
:1004A40000BF05B05DF804FB00B585B003900B46B2
:1004B4008DF80B309DF80B3000220192002200923F
:1004C400002200210398FFF7ADFF00BF05B05DF8DF
:1004D40004FB00B585B0019001AB1846FFF780FF1F
:1004E4000390019B012202FA03F31946039800F0DA
:1004F40035F800BF05B05DF804FB00B585B0019088
:1005040001AB1846FFF76CFF0390019B012202FA2E
:1005140003F31946039800F02BF800BF05B05DF80B
:1005240004FB00B585B0019001AB1846FFF758FFF6
:100534000390039800F00AF80246019B22FA03F3A1
:1005440003F00103184605B05DF804FB82B0019086
:10055400019BD3F81035184602B0704782B0019061
:100564000091019B009AC3F8082500BF02B07047B0
:1005740082B001900091019B009AC3F80C2500BF42
:1005840002B0704708B5114800F0CBFA03210B20E4
:10059400FFF78AFF03211920FFF786FF0D20FFF7DD
:1005A40072FF1920FFF7BDFF0346002B06D1084850
:1005B40000F0B7FA0D20FFF78CFFF2E7054800F0D2
:1005C400B0FA0D20FFF799FFEBE700BF380E0000EB
:1005D400540E0000640E0000BFF34F8F00BF074BA2
:1005E400DB6803F4E0620549054B1343CB60BFF3BA
:1005F4004F8F00BF00BF00BFFCE700BF00ED00E06D
:100604000400FA05024B034A1A6000BF704700BF9A
:10061400000000200090D00308B500F027F903463D
:10062400002B0ED04FF080430022C3F80C214FF072
:1006340080430022C3F810214FF080430022C3F806
:10064400382500F037F90346002B76D04FF080535D
:100654007D4AD3F80434C2F820354FF080537A4AE7
:10066400D3F80834C2F824354FF08053764AD3F8CF
:100674000C34C2F828354FF08053734AD3F8103441
:10068400C2F82C354FF080536F4AD3F81434C2F8B3
:1006940030354FF080536C4AD3F81834C2F83435EF
:1006A4004FF08053684AD3F81C34C2F840354FF0F9
:1006B4008053654AD3F82034C2F844354FF0805350
:1006C400614AD3F82434C2F848354FF080535E4A67
:1006D400D3F82834C2F84C354FF080535A4AD3F833
:1006E4002C34C2F850354FF08053574AD3F8303485
:1006F400C2F854354FF08053534AD3F83434C2F817
:1007040060354FF08053504AD3F83834C2F864351A
:100714004FF080534C4AD3F83C34C2F868354FF05C
:100724008053494AD3F84034C2F86C354FF08053B3
:10073400454AD3F84434C2F8703500F0DFF8034674
:10074400002B02D0414B424A1A6000F0E9F80346FC
:10075400002B03D03F4BFB22C3F8182500F0F2F81E
:100764000346002B0AD03C4B1B6823F00F023B4B83
:100774001B6803F00F03384913430B6000F0F4F8CF
:100784000346002B03D0364B4FF400721A6000F07E
:10079400FDF80346002B0DD04FF08043D3F800340E
:1007A40003F00103002B05D04FF080436FF00102EA
:1007B400C3F800242B4BD3F888302A4A43F470033F
:1007C400C2F88830BFF34F8F00BFBFF36F8F00BFF5
:1007D4004FF01023D3F80032002B05DB4FF0102329
:1007E400D3F80432002B2BDA1F4B0122C3F8042563
:1007F40000BF1D4BD3F80034002BFAD04FF0102368
:100804001222C3F8002200BF174BD3F80034002B88
:10081400FAD04FF010231222C3F8042200BF124B67
:10082400D3F80034002BFAD00F4B0022C3F8042570
:1008340000BF0D4BD3F80034002BFAD0FFF7CCFEE9
:10084400FFF7E0FE00BF08BD00C000408C5600402A
:100854004881030000F00040E40E004058020010FC
:100864004096024000ED00E000E001400F4B1B68A1
:10087400082B17D10E4B1B68002B01D1012312E06A
:100884000B4B1B68012B01D101230CE0084B1B68A7
:10089400022B01D1012306E0054B1B68032B01D178
:1008A400012300E001231846704700BF3001001007
:1008B400340100100F4B1B68082B17D10E4B1B681B
:1008C400002B01D1012312E00B4B1B68012B01D13A
:1008D40001230CE0084B1B68022B01D1012306E025
:1008E400054B1B68032B01D1012300E001231846AB
:1008F400704700BF3001001034010010064B1B6824
:10090400082B05D1054B1B68002B01D1012300E006
:1009140000231846704700BF300100103401001056
:10092400064B1B68082B05D1054B1B68002B01D116
:10093400012300E000231846704700BF3001001077
:1009440034010010064B1B68082B05D1054B1B68AE
:10095400002B01D1012300E000231846704700BF9B
:100964003001001034010010064B1B68082B05D120
:10097400054B1B68002B01D1012300E0002318461E
:10098400704700BF30010010340100100F4B1B688A
:10099400082B17D10E4B1B68002B01D1012312E049
:1009A4000B4B1B68012B01D101230CE0084B1B6886
:1009B400022B01D1012306E0054B1B68032B01D157
:1009C400012300E001231846704700BF30010010E6
:1009D4003401001086B003900291019201238DF836
:1009E40017309DF81730214A039B13601F4A029B5E
:1009F40053601E4A019B9360039B44F2010293429D
:100A040013D0039B44F20202934221D1019B174A63
:100A1400D360164BDB681B881A46144B9A61134B40
:100A2400DB685B68114AD36112E0019B0F4A1361D2
:100A34000E4B1B699B680D4A53610C4B1B691B6869
:100A44000A4A9361094B1B695B68084AD36100BF7A
:100A540072B600BF00BF9DF81730DBB2002BFAD18D
:100A640062B600BF00BF06B0704700BF1000002090
:100A740000B587B003900291019272B600BF039B48
:100A840044F20102934207D0039B44F202029342D0
:100A940005D1019B059303E0019B049300E000BF93
:100AA400074B1B6803F00103002B00D000BE019A22
:100AB40002990398FFF78EFF00BF07B05DF804FBAF
:100AC400F0ED00E000B585B003460091ADF80630C6
:100AD400BDF80630ADF80830009B039302AB1A460C
:100AE400002144F20200FFF7C3FF00BF05B05DF828
:100AF40004FB40F20801C2F20001096800F000B8EA
:100B040080B50B468DF803000DF10300012101228D
:100B140000F01FF89DF80310002808BF411E084686
:100B240008BD38B540F20801C2F2000104460D6860
:100B340000F023F902462846214600F03DF8013032
:100B44001EBF0A20BDE83840FFF7D3BF4FF0FF3087
:100B540038BDF8B51D4617460C460646184600F043
:100B64000FF8002803D407FB04F2A24201D20020AC
:100B7400F8BD2846314600F01FF8B0FBF4F0F8BD8C
:100B840040F20801C2F2000140F20C02C2F200027B
:100B940040F20403C2F2000309681B681268091AD0
:100BA40018BF01211B1A18BF01231940101A18BFBE
:100BB4000120084040427047006800F0B7B840F296
:100BC4003C00C2F2000003210161416140F68661EC
:100BD400C0F20001816140F2E402C2F20002C2618B
:100BE4004FF480620262002282624262C262016643
:100BF40040F2E441C2F200014166102181660267BD
:100C0400C2664267BFF35F8F0F2140F67562C0F280
:100C14000002535C00F8013B0139FAD2BFF35F8F45
:100C24007047C268016991428FBFD0438068D24344
:100C34001144084470472DE9F0411546884604469E
:100C44004068D4E9021630448F1B9742414605D9C7
:100C540000F0AAF83544BFF35F8F0BE03A4600F08A
:100C6400A3F808EB07016068ED1B2A4600F09CF826
:100C7400BFF35F8FE560BDE8F0812DE9F8431446CA
:100C840088460546C7684FF000092869A968FA43F1
:100C9400B8429ABF10444218024468683844CE1BD4
:100CA400B24238BF1646A64228BF264641463246BF
:100CB40000F07AF8A868F1190F1A18BF0F46BFF3AD
:100CC4005F8FEF60A41BB044B144DED14846BDE859
:100CD400F88370B50D4600EB400040F23C01C2F2CF
:100CE400000101EBC00000F11806C06A02280AD016
:100CF400144601280DD020B93046FFF792FFA042D8
:100D04000DD2002410E030462946BDE87040FFF7BC
:100D1400B4BF3046FFF785FFA04238BF04463046D3
:100D240029462246FFF787FF204670BDF8B51446D2
:100D34000D4640F23C01C2F2000106460878002844
:100D440008BFFFF73CFFEFF311874FF0200181F359
:100D54001188304629462246FFF7BBFF87F31188E6
:100D6400F8BD082938BF70470022C0E9002140F2CD
:100D7400F441C2F20001086070470178002904BF01
:100D84000020704700214FF001324358C2FA53F358
:100D94000431002BF9D093FAA3F0B0FA80F001EB00
:100DA400D0000438704700005AB3844690EA010327
:100DB4009B071FD1830707D011F8013B00F8013BC3
:100DC400013AF7D11CE08446203A09D32DE9F00713
:100DD400B1E8F807A0E8F807203AF9D2BDE8F0072F
:100DE4001C3205D451F8043B40F8043B043AF9D2D0
:100DF400043205D011F8013B00F8013B013AF9D166
:040E0400604670478D
:100E08002E2E2F2E2E2F2E2E2F2E2E2F2E2E2F2EF5
:100E18002E2F6D6F64756C65732F6E7266782F68F0
:100E2800616C2F6E72665F6770696F2E68000000D4
:100E38004D61696E206170706C69636174696F6E71
:100E48002073746172746564210D00004234206956
:100E5800732070726573736564210D0042342069D4
:100E6800732072656C6561736564210D0000000074
:100E780000000054545220524547474553005465DA
:070E8800726D696E616C00E0
:100E90000090D003300000203400002038000020F3
:0400000300000219DE
:00000001FF
