:100000000000042089030000710300007303000056
:100010007503000077030000790300000000000072
:100020000000000000000000000000007B03000052
:100030007D030000000000007F030000810300003A
:100040008303000083030000830300008303000098
:100050008303000083030000830300008303000088
:100060008303000083030000830300008303000078
:100070008303000083030000830300008303000068
:100080008303000083030000830300008303000058
:100090008303000083030000830300008303000048
:1000A0008303000083030000830300008303000038
:1000B0008303000083030000000000000000000034
:1000C0008303000083030000830300008303000018
:1000D0008303000083030000830300008303000008
:1000E000830300008303000083030000000000007E
:1000F00000000000830300000000000083030000F4
:1001000000000000000000000000000000000000EF
:1001100000000000000000000000000000000000DF
:1001200000000000000000000000000000000000CF
:1001300000000000000000000000000000000000BF
:1001400000000000000000000000000000000000AF
:10015000000000000000000000000000000000009F
:10016000000000000000000000000000000000008F
:10017000000000000000000000000000000000007F
:10018000000000000000000000000000000000006F
:10019000000000000000000000000000000000005F
:1001A000000000000000000000000000000000004F
:1001B000000000000000000000000000000000003F
:1001C000000000000000000000000000000000002F
:1001D000000000000000000000000000000000001F
:1001E000000000000000000000000000000000000F
:1001F00000000000000000000000000000000000FF
:100200003A493B480A1A02D0072291438D463949A0
:1002100039480A1A06D00722914381F3098802223D
:1002200082F3148835483649364A00F041F836489A
:100230003649374A00F03CF836483749374A00F02B
:1002400037F837483749384A00F032F837483849E4
:10025000384A00F02DF838483849394A00F028F873
:1002600038483949394A00F023F8394839490022D9
:1002700000F036F838483949002200F031F83848A3
:100280003849091A00F006FC374A904725482649A4
:10029000884205D00268043003B4904703BCF7E7F6
:1002A00000208646EC4600200021304A9047FEE7B9
:1002B000884214D0521A12D003460B43134303242E
:1002C000234206D1036804300B600431043AF9D1AB
:1002D0007047037801300B700131013AF9D1704752
:1002E000884202D002700130FAE770470000042013
:1002F00000E003200000042000000420E80A0000C1
:100300000000002004000020E4030000E4030000DB
:10031000AC0A0000E80A00000000002000000020F5
:10032000AC0A0000AC0A0000AC0A0000AC0A0000F5
:10033000AC0A0000AC0A0000AC0A0000AC0A0000E5
:10034000E60A0000EC0A000004000020040000207F
:1003500004000020280000202800002028000020A1
:100360002800002028200020B10300006D060000B6
:10037000FEE7FEE7FEE7FEE7FEE7FEE7FEE7FEE755
:10038000FEE7FEE700F002B8FFF7FCBF0F484FF0B2
:100390000701884385460E4880470E48016841F4AE
:1003A00070010160BFF34F8FBFF36F8FFFF728BF5E
:1003B00009480A490A4A884207D0521A05D00378E8
:1003C00001300B700131013AF9D17047000004206F
:1003D000D906000088ED00E0AC0A00000000002013
:0403E00000000020F9
:1003E40086B003900291019201238DF817309DF895
:1003F4001730214A039B13601F4A029B53601E4A15
:10040400019B9360039B44F20102934213D0039B2C
:1004140044F20202934221D1019B174AD360164B46
:10042400DB681B881A46144B9A61134BDB685B68C4
:10043400114AD36112E0019B0F4A13610E4B1B69F1
:100444009B680D4A53610C4B1B691B680A4A9361F4
:10045400094B1B695B68084AD36100BF72B600BFD1
:1004640000BF9DF81730DBB2002BFAD162B600BF93
:1004740000BF06B0704700BF0400002000B587B07D
:1004840003900291019272B600BF039B44F20102F1
:10049400934207D0039B44F20202934205D1019B8D
:1004A400059303E0019B049300E000BF074B1B6826
:1004B40003F00103002B00D000BE019A02990398B7
:1004C400FFF78EFF00BF07B05DF804FBF0ED00E01E
:1004D40000B585B003460091ADF80630BDF806308E
:1004E400ADF80830009B039302AB1A46002144F296
:1004F4000200FFF7C3FF00BF05B05DF804FB000076
:1005040000B585B00190019B002B0AD0074B43F046
:1005140001030393019B9B010293039B0298984759
:1005240000E000BF05B05DF804FB00BFE00A000076
:1005340000B583B00190019B002B0AD04FF47A7070
:10054400FFF7DEFF019B013B0193019B002BF5D1DB
:1005540000E000BF03B05DF804FB000000B583B009
:100564000190019B1B682F2B04D90B4940F2CD103D
:10057400FFF7AEFF019B1B681F2B02D84FF0A0436F
:1005840006E0019B1B6803F01F02019B1A60034BEA
:10059400184603B05DF804FBAC0A000000030050E9
:1005A40000B585B00190084611461A4603468DF8F9
:1005B40003300B468DF8023013468DF8013001AB41
:1005C4001846FFF7CBFF03909DF803209DF80230F7
:1005D4005B001A439DF801309B001A439DF81830C4
:1005E4001B0242EA03019DF81C301B04019A1943C3
:1005F400039B02F5E07243F8221000BF05B05DF8DA
:1006040004FB00B585B003900023019300230093FD
:100614000023012201210398FFF7C2FF00BF05B0A8
:100624005DF804FB00B585B0019001AB1846FFF7F7
:1006340095FF0390039BD3F804350293029BDA439E
:10064400019B012101FA03F31A40039BC3F8082517
:10065400019B01229A40029B1A40039BC3F80C257C
:1006640000BF05B05DF804FB08B50D20FFF7C9FF16
:100674001020FFF7C6FF0D20FFF7D4FF4FF4FA70E8
:10068400FFF756FF1020FFF7CDFF4FF47A70FFF706
:100694004FFFF0E7BFF34F8F00BF074BDB6803F456
:1006A400E0620549054B1343CB60BFF34F8F00BF96
:1006B40000BF00BFFCE700BF00ED00E00400FA0546
:1006C400024B034A1A6000BF704700BF00000020BD
:1006D4000090D00308B500F027F90346002B0ED094
:1006E4004FF080430022C3F80C214FF080430022D6
:1006F400C3F810214FF080430022C3F8382500F0DE
:1007040037F90346002B76D04FF080537D4AD3F857
:100714000434C2F820354FF080537A4AD3F80834B1
:10072400C2F824354FF08053764AD3F80C34C2F81B
:1007340028354FF08053734AD3F81034C2F82C355F
:100744004FF080536F4AD3F81434C2F830354FF069
:1007540080536C4AD3F81834C2F834354FF08053C0
:10076400684AD3F81C34C2F840354FF08053654AC8
:10077400D3F82034C2F844354FF08053614AD3F89B
:100784002434C2F848354FF080535E4AD3F82834F5
:10079400C2F84C354FF080535A4AD3F82C34C2F87F
:1007A40050354FF08053574AD3F83034C2F854359B
:1007B4004FF08053534AD3F83434C2F860354FF0C5
:1007C4008053504AD3F83834C2F864354FF080531C
:1007D4004C4AD3F83C34C2F868354FF08053494A48
:1007E400D3F84034C2F86C354FF08053454AD3F8FF
:1007F4004434C2F8703500F0DFF80346002B02D011
:10080400414B424A1A6000F0E9F80346002B03D03A
:100814003F4BFB22C3F8182500F0F2F80346002BE7
:100824000AD03C4B1B6823F00F023B4B1B6803F0C0
:100834000F03384913430B6000F0F4F80346002B10
:1008440003D0364B4FF400721A6000F0FDF80346F3
:10085400002B0DD04FF08043D3F8003403F0010394
:10086400002B05D04FF080436FF00102C3F8002441
:100874002B4BD3F888302A4A43F47003C2F88830EB
:10088400BFF34F8F00BFBFF36F8F00BF4FF0102334
:10089400D3F80032002B05DB4FF01023D3F80432D9
:1008A400002B2BDA1F4B0122C3F8042500BF1D4B7C
:1008B400D3F80034002BFAD04FF010231222C3F8DF
:1008C400002200BF174BD3F80034002BFAD04FF0AE
:1008D40010231222C3F8042200BF124BD3F80034B1
:1008E400002BFAD00F4B0022C3F8042500BF0D4B98
:1008F400D3F80034002BFAD0FFF7CCFEFFF7E0FE6C
:1009040000BF08BD00C000408C5600404881030071
:1009140000F00040E40E00405802001040960240EF
:1009240000ED00E000E001400F4B1B68082B17D1DD
:100934000E4B1B68002B01D1012312E00B4B1B68EB
:10094400012B01D101230CE0084B1B68022B01D1C0
:10095400012306E0054B1B68032B01D1012300E0B2
:1009640001231846704700BF300100103401001005
:100974000F4B1B68082B17D10E4B1B68002B01D1A2
:10098400012312E00B4B1B68012B01D101230CE066
:10099400084B1B68022B01D1012306E0054B1B68A1
:1009A400032B01D1012300E001231846704700BF47
:1009B4003001001034010010064B1B68082B05D1D0
:1009C400054B1B68002B01D1012300E000231846CE
:1009D400704700BF3001001034010010064B1B6843
:1009E400082B05D1054B1B68002B01D1012300E026
:1009F40000231846704700BF300100103401001076
:100A0400064B1B68082B05D1054B1B68002B01D135
:100A1400012300E000231846704700BF3001001096
:100A240034010010064B1B68082B05D1054B1B68CD
:100A3400002B01D1012300E000231846704700BFBA
:100A440030010010340100100F4B1B68082B17D124
:100A54000E4B1B68002B01D1012312E00B4B1B68CA
:100A6400012B01D101230CE0084B1B68022B01D19F
:100A7400012306E0054B1B68032B01D1012300E091
:100A840001231846704700BF3001001034010010E4
:100A9400082938BF70470022C0E9002140F2240130
:080AA400C2F200010860704776
:100AAC002E2E2F2E2E2F2E2E2F2E2E2F2E2E2F2E55
:100ABC002E2F6D6F64756C65732F6E7266782F6850
:100ACC00616C2F6E72665F6770696F2E6800000034
:0A0ADC00000000000338FDD8704749
:040AE8000090D003A7
:04000003000003896D
:00000001FF
