:100000000000042089030000710300007303000056
:100010007503000077030000790300000000000072
:100020000000000000000000000000007B03000052
:100030007D030000000000007F030000810300003A
:100040008303000083030000830300008303000098
:100050008303000083030000490F000083030000B6
:10006000311B0000830300008303000083030000B2
:100070008303000083030000830300008303000068
:100080008303000083030000830300008303000058
:100090008303000083030000830300008303000048
:1000A0008303000083030000830300008303000038
:1000B0008303000083030000000000000000000034
:1000C0008303000083030000830300008303000018
:1000D0008303000083030000830300008303000008
:1000E000830300008303000083030000000000007E
:1000F00000000000830300000000000083030000F4
:1001000000000000000000000000000000000000EF
:1001100000000000000000000000000000000000DF
:1001200000000000000000000000000000000000CF
:1001300000000000000000000000000000000000BF
:1001400000000000000000000000000000000000AF
:10015000000000000000000000000000000000009F
:10016000000000000000000000000000000000008F
:10017000000000000000000000000000000000007F
:10018000000000000000000000000000000000006F
:10019000000000000000000000000000000000005F
:1001A000000000000000000000000000000000004F
:1001B000000000000000000000000000000000003F
:1001C000000000000000000000000000000000002F
:1001D000000000000000000000000000000000001F
:1001E000000000000000000000000000000000000F
:1001F00000000000000000000000000000000000FF
:100200003A493B480A1A02D0072291438D463949A0
:1002100039480A1A06D00722914381F3098802223D
:1002200082F3148835483649364A00F041F836489A
:100230003649374A00F03CF836483749374A00F02B
:1002400037F837483749384A00F032F837483849E4
:10025000384A00F02DF838483849394A00F028F873
:1002600038483949394A00F023F8394839490022D9
:1002700000F036F838483949002200F031F83848A3
:100280003849091A01F0C4FF374A904725482649E2
:10029000884205D00268043003B4904703BCF7E7F6
:1002A00000208646EC4600200021304A9047FEE7B9
:1002B000884214D0521A12D003460B43134303242E
:1002C000234206D1036804300B600431043AF9D1AB
:1002D0007047037801300B700131013AF9D1704752
:1002E000884202D002700130FAE770470000042013
:1002F00000E0032000000420000004207824000017
:100300000000002004000020E4030000E4030000DB
:10031000902200007824000000000020000000204F
:100320009022000090220000902200009022000005
:1003300090220000902200009022000090220000F5
:10034000782400007C240000040000200400002029
:1003500004000020A4000020A4000020A40000202D
:10036000A4000020A4200020B1030000791C00009C
:10037000FEE7FEE7FEE7FEE7FEE7FEE7FEE7FEE755
:10038000FEE7FEE700F002B8FFF7FCBF0F484FF0B2
:100390000701884385460E4880470E48016841F4AE
:1003A00070010160BFF34F8FBFF36F8FFFF728BF5E
:1003B00009480A490A4A884207D0521A05D00378E8
:1003C00001300B700131013AF9D17047000004206F
:1003D000551E000088ED00E0902200000000002083
:0403E00000000020F9
:1003E40086B003900291019201238DF817309DF895
:1003F4001730214A039B13601F4A029B53601E4A15
:10040400019B9360039B44F20102934213D0039B2C
:1004140044F20202934221D1019B174AD360164B46
:10042400DB681B881A46144B9A61134BDB685B68C4
:10043400114AD36112E0019B0F4A13610E4B1B69F1
:100444009B680D4A53610C4B1B691B680A4A9361F4
:10045400094B1B695B68084AD36100BF72B600BFD1
:1004640000BF9DF81730DBB2002BFAD162B600BF93
:1004740000BF06B0704700BF0400002000B583B081
:1004840002900091019244F2010071466A4600F024
:1004940003F803B000BD00BF00B587B0039002911C
:1004A400019272B600BF039B44F20102934207D04B
:1004B400039B44F20202934205D1019B059303E09E
:1004C400019B049300E000BF074B1B6803F001038A
:1004D400002B00D000BE019A02990398FFF780FF19
:1004E40000BF07B05DF804FBF0ED00E072B600BF9A
:1004F400034B1B680133024A136000BF704700BFFF
:1005040024000020064B1B68013B054A1360044B82
:100514001B68002B01D162B600BF00BF704700BF4B
:100524002400002000B583B0019000F025F80346B4
:10053400012B03D00449432000F03BF8FFF7D6FF1A
:1005440000BF03B05DF804FB9022000000B583B047
:1005540003468DF8073000F00FF80346012B03D053
:100564000449512000F025F8FFF7CCFF00BF03B089
:100574005DF804FB9022000084B0EFF3058301933F
:10058400019BC3F308030393039B002B0DD1EFF3EB
:1005940014830093009B0293029B03F00103002B3E
:1005A4000CBF01230023DBB200E00123184604B092
:1005B400704700B585B003460091ADF80630BDF82C
:1005C4000630ADF80830009B039302AB1A460021B5
:1005D40044F20200FFF760FF00BF05B05DF804FBC2
:1005E40082B003468DF807309DF8073003F01F02F0
:1005F40005499DF907305B09012000FA02F241F830
:10060400232000BF02B0704700E100E082B003463F
:1006140000918DF807309DF90730002B0CDA009B10
:10062400DAB20C499DF8073003F00F03043B520182
:10063400D2B20B441A7609E0009BDAB206499DF95E
:1006440007305201D2B20B4483F8002300BF02B03A
:10065400704700BF00ED00E000E100E000B583B0AA
:1006640003460A468DF8073013468DF806309DF888
:100674000630072B03D908496B20FFF79AFF9DF832
:1006840006209DF9073011461846FFF7BFFF00BF4B
:1006940003B05DF804FB00BFD822000000B583B0AE
:1006A40003468DF807309DF907301846FFF798FF89
:1006B40000BF03B05DF804FB82B003468DF8073039
:1006C4009DF8073003F1804303F5C043184602B098
:1006D400704700B583B00346ADF80630BDF8063068
:1006E400184600F026F803461B68012B0CBF0123B3
:1006F4000023DBB2184603B05DF804FB00B585B0F7
:100704000346ADF80630BDF80630184600F011F87F
:1007140003461A4600231360BDF80630184600F05D
:1007240008F803461B680393039B00BF05B05DF8FC
:1007340004FB82B00346ADF80630BDF8063003F181
:10074400804303F5C043184602B0704782B001905D
:10075400034A019BC2F8043300BF02B0704700BFD4
:100764000060004082B00190034BD3F80423019B46
:100774001340184602B070470060004082B00190F8
:10078400054A019B03F5A27352F823301B0A03F0B8
:100794003F03184602B070470060004082B00190E9
:1007A400064A019B03F5A27352F823301B0C03F095
:1007B4000303DBB2184602B0704700BF006000407C
:1007C40084B00190094A019B03F5A27352F82330C7
:1007D40043F0030303930549019B03F5A273039AB2
:1007E40041F8232000BF04B0704700BF0060004000
:1007F40084B00390029111461A460B468DF80730D7
:1008040013468DF80630184A039B03F5A27352F879
:100814002330154923F4991323F4F853039A02F56A
:10082400A27241F82230104A039B03F5A27352F8D6
:100834002320029B1B0203F47C519DF807301B0408
:1008440003F4403319439DF806301B0503F4801369
:100854000B4305491A43039B03F5A27341F8232074
:1008640000BF04B0704700BF0060004000B583B013
:100874000190019B1B682F2B04D90B4940F2CD102A
:10088400FFF797FE019B1B681F2B02D84FF0A04374
:1008940006E0019B1B6803F01F02019B1A60034BD7
:1008A400184603B05DF804FB082300000003005061
:1008B40000B585B00190084611461A4603468DF8E6
:1008C40003300B468DF8023013468DF8013001AB2E
:1008D4001846FFF7CBFF03909DF803209DF80230E4
:1008E4005B001A439DF801309B001A439DF81830B1
:1008F4001B0242EA03019DF81C301B04019A1943B0
:10090400039B02F5E07243F8221000BF05B05DF8C6
:1009140004FB00B585B003900023019300230093EA
:100924000023012201210398FFF7C2FF00BF05B095
:100934005DF804FB00B585B001900B468DF80330DB
:1009440001AB1846FFF792FF0390019A039B02F54F
:10095400E07253F82230019A23F44031039B02F5EC
:10096400E07243F82210019A039B02F5E07253F8F7
:1009740022109DF803301B04019A1943039B02F5CE
:10098400E07243F8221000BF05B05DF804FB00B527
:1009940085B0019001AB1846FFF768FF0390019BF7
:1009A400012202FA03F31946039800F036F800BF57
:1009B40005B05DF804FB00B585B0019001AB1846A5
:1009C400FFF754FF0390019B012202FA03F3194637
:1009D400039800F02CF800BF05B05DF804FB00B5E7
:1009E40085B0019001AB1846FFF740FF0390019AD0
:1009F400039B02F5E07253F822301B0C03F003034F
:100A0400DBB2184605B05DF804FB82B00190019B8F
:100A1400D3F81035184602B0704782B001900091A7
:100A2400019B009AC3F8082500BF02B0704782B04A
:100A340001900091019B009AC3F80C2500BF02B0FD
:100A44007047000000B589B0039002910192184AE2
:100A540005AB92E8030083E80300039A029B134466
:100A6400022B04D9134940F2FD20FFF7A2FD039B9A
:100A7400079311E0079B9B0020336B4453F80C3C15
:100A84001846FFF7C2FF0246019B1A60019B04331C
:100A94000193079B01330793039A029B1344079A1C
:100AA4009A42E7D300BF00BF09B05DF804FB00BF62
:100AB400382300000823000084B001900091009BBB
:100AC4000393019BDB080293019B03F0070301934B
:100AD4000122019B02FA03F30399029A0A44127851
:100AE4001340184604B0704784B001900091009BF5
:100AF4000393019BDB080293019B03F0070301931B
:100B0400039A029B13441B785AB20121019B01FAF8
:100B140003F35BB2134359B2039A029B1344CAB260
:100B24001A7000BF04B0704782B00190074A019B5D
:100B34001344243393F90030B3F1FF3F14BF01236E
:100B44000023DBB2184602B0704700BF2800002023
:100B540082B001900C4A019B1344243393F9003072
:100B6400002B09DB084A019B1344243393F900301A
:100B7400072B01DC012300E0002303F00103DBB2B7
:100B8400184602B0704700BF2800002084B00390CC
:100B9400029101928DF80330029B59B20E4A039BD5
:100BA400134424330A461A700B49029B019A41F8F4
:100BB40023209DF8033083F00103DBB2002B08D01F
:100BC400029B083B039A51B2034A13440A4683F832
:100BD400542000BF04B070472800002082B0019068
:100BE400044A019B13442433FE221A7000BF02B04E
:100BF400704700BF2800002082B00190044A019B86
:100C040013442433FF221A7000BF02B0704700BFA0
:100C14002800002000B583B0019004490198FFF733
:100C240063FF00BF03B05DF804FB00BF7D0000203C
:100C340082B00190044A019B1344243393F9003099
:100C4400184602B0704700BF2800002082B001900F
:100C5400034A019B52F82330184602B0704700BF84
:100C64002800002000B589B00390029113468DF846
:100C74000730FF238DF81F309DF80730002B01D07B
:100C8400002300E0082305939DF80730002B01D0D2
:100C9400082300E009230493059B069314E00F4AFC
:100CA400069B52F82330B3F1FF3F0AD19DF8073079
:100CB400029A06990398FFF769FF069B8DF81F3087
:100CC40006E0069B01330693069A049B9A42E6D3F8
:100CD4009DF91F30184609B05DF804FB2800002078
:100CE40082B003468DF807309DF80730094A4FF06B
:100CF400FF3142F823109DF80730072B07D99DF8E0
:100D04000730083B034A1344FF2283F8542000BFF2
:100D140002B070472800002000B583B0254B93F83B
:100D24005B30002B03D008230093009B3EE000239C
:100D34008DF8073009E09DF807301846FFF75CFF8F
:100D44009DF8073001338DF807309DF807302F2BBD
:100D5400F1D900238DF8073009E09DF807301846D3
:100D6400FFF7BEFF9DF8073001338DF807309DF87B
:100D74000730082BF1D9062200210F4801F056FA5A
:100D840006210620FFF76AFC0620FFF787FC4FF4D4
:100D9400BE70FFF7B3FC4FF00040FFF7D7FC054BE4
:100DA400012283F85B2000230093009B184603B0C4
:100DB4005DF804FB280000207D00002000B585B00C
:100DC40001900091019B2F2B04D92E494FF4987068
:100DD400FFF7EFFB2C4B93F85B30012B04D0294930
:100DE40040F23110FFF7E5FB009B002B04D12549AD
:100DF4004FF49970FFF7DDFB002303930198FFF78D
:100E040093FE0346002B02D00823039334E0009B97
:100E14009B78002B19D0012200210198FFF722FFB3
:100E240003468DF80B309DF90B30B3F1FF3F09D029
:100E34009DF90B00009B1A78009B5B780199FFF7E2
:100E4400D7FC05E00423039302E00198FFF7C6FEF4
:100E5400039B002B10D1009B5B78012B03D10198DD
:100E6400FFF795FD02E00198FFF7A5FD0198FFF754
:100E740050FD0198FFF7CEFE039B184605B05DF8C0
:100E840004FB00BF402300002800002000B583B00D
:100E94000190019B2F2B04D913494FF4CD70FFF718
:100EA40088FB0198FFF740FE0346002B04D10E494E
:100EB40040F29B10FFF77DFB0198FFF749FE0346C4
:100EC400002B04D108494FF4CE70FFF772FB074A98
:100ED400019B1344243393F900301846FFF770FC48
:100EE40000BF03B05DF804FB40230000280000208D
:100EF40000B585B00190019B2F2B04D910494FF404
:100F0400D770FFF756FB0198FFF722FE0346002B2C
:100F140004D10B4940F2AF10FFF74BFB0198FFF7E8
:100F240087FE0346DBB29B008DF80F309DF80F302F
:100F34001846FFF7C1FB0346184605B05DF804FBED
:100F44004023000000B599B00023179306AB00229C
:100F54001A605A604FF48073ADF85630012314932D
:100F64000023169321E0BDF856301846FFF7B1FB75
:100F74000346002B0ED01498FFF7F4FB0346002B16
:100F840008D0BDF856301846FFF7B8FB179A149BE3
:100F940013431793149B5B001493BDF8563004332A
:100FA400ADF85630169B01331693169B072BDAD9EE
:100FB4004FF4BE70FFF78DFB0346002B0DD04FF4AA
:100FC400BE70FFF79BFB179B43F00043179306ABE0
:100FD4001A4602210020FFF735FD179BDBB2002BD8
:100FE40029D0012314930023169321E0149A179B0C
:100FF4001340002B16D01698FFF7C0FB11901698DB
:10100400FFF7CCFB03468DF843301698FFF71EFE1E
:101014000F900F9B002B05D09DF843200F9B11468A
:1010240011989847149B5B001493169B01331693F5
:10103400169B072BDAD9179B002B80F2F080002334
:101044008DF84B3004AB00221A605A6000231393CE
:101054000AE0139B9B0060336B444FF0FF3243F86C
:10106400582C139B01331393139B012BF1D90023A9
:101074008DF84B300023169378E06B4A169B13448B
:10108400543393F900308DF83B309DF83B3023F016
:10109400C0030D93644A169B1344543393F90030F0
:1010A400B3F1FF3F5FD002AB19460D98FFF704FD83
:1010B4000346002B57D09DF83B309B098DF8333005
:1010C4000D98FFF7B5FD03461846FFF7BFFD0B90DB
:1010D4000B9B002B03D19DF83330032B43D19DF898
:1010E4003330032B04D104AB19460D98FFF7FCFCF5
:1010F4000D98FFF774FC03468DF82B3006AB1946A8
:101104000D98FFF7D9FC0990099B002B03D09DF89B
:101114002B30022B06D0099B002B24D19DF82B30B9
:10112400032B20D19DF83330032B13D19DF82B30A2
:10113400022B01D1032300E002238DF823309DF814
:10114400233019460D98FFF7F5FB9DF84B3001331A
:101154008DF84B300B9B002B05D09DF833200B9B57
:1011640011460D989847169B01331693169B002B36
:1011740083D09DF84B30002B4CD001238DF84A309E
:101184006B461A4602210020FFF75CFC00231393F0
:1011940014E0139B9B0060336B4453F8602C139B47
:1011A4009B0060336B4453F8483C9A4203D00023BD
:1011B4008DF84A3005E0139B01331393139B012BE5
:1011C400E7D99DF84A30002B03D000238DF84B302B
:1011D40020E0002313931AE0139B9B0060336B44BD
:1011E40053F8602C139B9B0060336B4443F8482CEA
:1011F400139B9B0060336B4453F8502C139B9B0050
:1012040060336B4443F8582C139B01331393139BA3
:10121400012BE1D99DF84B30002B7FF428AF00BFA0
:1012240019B05DF804FB00BF2800002082B003461B
:101234008DF807309DF80730044A012101FA03F3C1
:10124400C2F8043500BF02B0704700BF00F001408F
:1012540084B00346029101928DF80F3008499DF83D
:101264000F30A233029A41F83320054A9DF80F301B
:10127400A233DB001344019A5A6000BF04B07047E4
:1012840000F0014082B003468DF807309DF8073026
:10129400012202FA03F3184602B0704700B583B086
:1012A40003468DF807309DF807301846FFF7EAFF2C
:1012B4000346C3F31303002B14BF01230023DBB243
:1012C400184603B05DF804FB82B001900123184670
:1012D40002B0704700B583B003468DF807309DF81F
:1012E40007301846FFF7CEFF03461846FFF7ECFF1A
:1012F4000346184603B05DF804FB000000B583B054
:1013040003468DF807309DF807301846FFF7BAFFFB
:101314000246064B1B681340002B14BF0123002315
:10132400DBB2184603B05DF804FB00BF8400002064
:1013340000B583B003468DF807309DF80730184692
:10134400FFF7A0FF0246044B1B681343024A1360D5
:1013540000BF03B05DF804FB8400002000B587B033
:101364000190002305930023039304230593244B46
:10137400039300238DF8133037E00020FFF7D2F8F1
:101384009DF813301846FFF77DFF0246039B134078
:10139400002B15D09DF813301846FFF7AFFF034616
:1013A40083F00103DBB2002B0AD09DF813301846FA
:1013B400FFF7BEFF019B9DF813201A7000230593CD
:1013C4000020FFF7C3F8059B002B12D09DF81330C3
:1013D4001846FFF757FF0346DB43039A1340039372
:1013E4009DF8133001338DF81330039B002BC4D1C7
:1013F40000E000BF059B184607B05DF804FB00BF82
:10140400FFFF0F0000B587B00346029101928DF8EB
:101414000F30029B002B02D0019B002B01D10E2325
:1014240025E0002305939DF80F301846FFF736FF9B
:10143400034683F00103DBB2002B02D0072305939C
:1014440014E09DF80F301846FFF758FF034683F069
:101454000103DBB2002B02D00823059306E09DF8BC
:101464000F30019A02991846FFF7F2FE059B1846C1
:1014740007B05DF804FB00B585B003468DF807306E
:10148400002303939DF807301846FFF723FF034614
:1014940083F00103DBB2002B02D0072303931AE08D
:1014A4009DF807301846FFF7F9FE0346002B0DD0D0
:1014B4009DF807301846FFF721FF034683F0010328
:1014C400DBB2002B02D00823039304E09DF807301D
:1014D4001846FFF7ABFE039B184605B05DF804FB06
:1014E40082B003468DF807309DF8073003F01F02E1
:1014F40005499DF907305B09012000FA02F241F821
:10150400232000BF02B0704700E100E082B0034630
:1015140000918DF807309DF90730002B0CDA009B01
:10152400DAB20C499DF8073003F00F03043B520173
:10153400D2B20B441A7609E0009BDAB206499DF94F
:1015440007305201D2B20B4483F8002300BF02B02B
:10155400704700BF00ED00E000E100E082B00190C0
:10156400019B1B0B5BB2184602B0704700B583B0F9
:1015740003460A468DF8073013468DF806309DF869
:101584000630072B03D908496B20FFF712F89DF8A2
:1015940006209DF9073011461846FFF7B7FF00BF34
:1015A40003B05DF804FB00BF8423000000B583B0E2
:1015B40003468DF807309DF907301846FFF790FF72
:1015C40000BF03B05DF804FB82B001900B468DF8B8
:1015D40003309DF80330019A134401221A6000BFBE
:1015E40002B0704784B001900B46ADF80230BDF8EC
:1015F4000230019A134400221A60BDF80230019AA5
:1016040013441B680393039B00BF04B0704782B06C
:1016140001900B46ADF80230BDF80230019A134434
:101624001B68002B14BF01230023DBB2184602B051
:10163400704782B001900091019BD3F80022009B77
:101644001A43019BC3F8002200BF02B0704782B066
:1016540001900091019BD3F80022009BDB431A40C8
:10166400019BC3F8002200BF02B0704782B0019012
:101674000091019B009AC3F8042300BF02B0704795
:1016840082B001900091019B009AC3F8082300BF27
:1016940002B0704782B001900091019BD3F80423FB
:1016A400009B1340002B14BF01230023DBB2184618
:1016B40002B0704782B001900B468DF80330019B55
:1016C400D3F8043523F003029DF8033003F0030339
:1016D4001A43019BC3F8042500BF02B0704782B0CF
:1016E40001900B468DF80330019BD3F8083523F0A5
:1016F40003029DF8033003F003031A43019BC3F86C
:10170400082500BF02B0704782B001900B468DF8E7
:101714000330019BD3F8103523F00F029DF80330FA
:1017240003F00F031A43019BC3F8102500BF02B056
:10173400704784B003900B4601928DF80B309DF8EE
:101744000B20039B02F5A872019943F8221000BFF5
:1017540004B0704782B00190019B9B0003F5A07315
:101764009BB2184602B0704782B001904FF48032A9
:10177400019B02FA03F3184602B0704710B588B013
:10178400039002910192039B1B791A4613465B0056
:1017940013449B006F4A13440693029B002B03D10E
:1017A4006D494A20FEF705FF019B002B03D16A49CE
:1017B4004B20FEF7FEFE069B1B7A002B03D008236A
:1017C4000593059BC2E0039B1B68644A93420FD1B7
:1017D400029B9B78012B63D0029B9B78002B5FD0EC
:1017E400029B9B78022B5BD0029B9B78032B57D0E8
:1017F400039B1B685A4A93420FD1029B9B78012B8F
:101804004ED0029B9B78002B4AD0029B9B78022BE4
:1018140046D0029B9B78032B42D0039B1B68514A02
:1018240093420FD1029B9B78012B39D0029B9B786A
:10183400002B35D0029B9B78022B31D0029B9B78E6
:10184400032B2DD0039B1B68474A93420FD1029B65
:101854009B78012B24D0029B9B78002B20D0029BE9
:101864009B78022B1CD0029B9B78032B18D0039BE4
:101874001B683E4A93420FD1029B9B78012B0FD0E9
:10188400029B9B78002B0BD0029B9B78022B07D0EA
:10189400029B9B78032B03D02F495F20FEF789FE20
:1018A400069B019A1A60029B5A68069B5A600023A1
:1018B4008DF81F3010E0039B1C689DF81F301846FC
:1018C400FFF748FF034619462046FFF78BFE9DF8B5
:1018D4001F3001338DF81F30039B5B799DF81F2067
:1018E4009A42E8D3039B1B681846FFF737FE03466A
:1018F4001A46029BDB7819461046FFF737FE039B16
:101904001B681846FFF72AFE03461846FFF74EFEEB
:10191400039B1A68029B5B7819461046FFF7CAFEC0
:10192400039B1A68029B9B7819461046FFF7D7FE63
:10193400039B1A68029B1B7819461046FFF7E4FEC6
:10194400069B01221A7200230593059B184608B0D2
:1019540010BD00BF88000020B423000000800040B8
:101964000090004000A0004000A0014000B00140F1
:1019740000B583B00190019B1B791946114A0B46AF
:101984005B000B449B00134408331B78012B03D0EA
:101994000D498F20FEF70DFE019B1B6800211846A0
:1019A400FFF712FE019B1B791946064A0B465B00A2
:1019B4000B449B001344083302221A7000BF03B087
:1019C4005DF804FB88000020B423000010B586B045
:1019D400039001921A460B468DF80B3013468DF88E
:1019E4000A309DF80B301846FFF7BEFE05909DF8AF
:1019F4000A30002B12D0039B1C689DF80B3018464C
:101A0400FFF7A8FE034619462046FFF7EBFD039BAC
:101A14001B6805991846FFF729FE05E0039B1B6820
:101A240005991846FFF72CFE039B1B689DF80B10C5
:101A3400019A1846FFF77DFE00BF06B010BD00B541
:101A440085B0039001921A460B468DF80B3013466D
:101A5400ADF80830039B18689DF80B304FF4807282
:101A64009A409DF80B30012101FA03F31343194600
:101A7400FFF7EDFD039B1B68BDF8082011461846CF
:101A8400FFF7D7FD9DF818309DF80B10019A0398C5
:101A9400FFF79CFF00BF05B05DF804FB00B587B0FD
:101AA4000390029113468DF8073000238DF8173008
:101AB40030E09DF817301846FFF74CFE0346ADF8AA
:101AC40014309DF817301846FFF74EFE0490BDF809
:101AD400143019460398FFF79AFD0346002B14D0DF
:101AE40004990398FFF7D6FD0346002B0DD0BDF8EB
:101AF400143019460398FFF775FD029B1B68029A80
:101B04005168BDF81420104698479DF817300133EA
:101B14008DF817309DF817209DF807309A42C8D3E6
:101B240000BF00BF07B05DF804FB000008B5042245
:101B340002490348FFF7B2FF00BF08BD8800002038
:101B44000080004082B001900B46ADF80230BDF831
:101B54000230019A1344184602B0704782B00190D3
:101B6400019BD3F81035DBB2184602B07047000071
:101B74002DE9F04F87B001908DF803109DF8031004
:101B84000591019900200E460746304639464FF02C
:101B9400000A4FF0000B4FEA411B4BEAD06B4FEAAF
:101BA400401A50465946821B61EB07034FF0000070
:101BB4004FF00001990041EA9271900002460B46F1
:101BC40012EB060843EB07094FF000024FF0000345
:101BD4004FEAC91343EA58634FEAC812904699463C
:101BE40042464B460599C1F12006A1F1200022FA94
:101BF40001F403FA06F6344323FA00F0044323FA0B
:101C040001F5CDE90245DDE90223012B04D30549A1
:101C140040F2BE20FEF7CDFC029B184607B0BDE89B
:101C2400F08F00BFF423000000B583B001900B4691
:101C3400ADF80230019B1B68BDF80220114618461E
:101C4400FFF780FF0346184603B05DF804FB00B5B8
:101C540083B001900091019B1B681846FFF77EFF3B
:101C6400034619460098FFF783FF0346184603B05E
:101C74005DF804FB00B585B00023039300F032F84F
:101C840000F06CF81348FFF769FB0390039B029381
:101C9400029B002B04D0104A59210298FEF7EEFB58
:101CA4000C4B1B780D4A11680D4A12681846FFF751
:101CB400A9FB084B1B781846FFF7DDFB0390039B39
:101CC4000193019B002B04D0034A60210198FEF785
:101CD400D5FBFEE79C00002024240000980000208F
:101CE4009400002000B585B000230393184A6B4686
:101CF4001268114619800233120C1A70FFF70CF89F
:101D04000390039B0293029B002B04D0114A712180
:101D14000298FEF7B3FB6B4619460D20FFF74EF809
:101D24000390039B0193019B002B04D0094A752166
:101D34000198FEF7A3FB0D20FFF7A8F80D20FFF78D
:101D4400D7F80346044A136000BF05B05DF804FBEE
:101D540064240000242400009400002000B58BB00B
:101D640000230993244A05AB92E8030083E80300A7
:101D7400224A03AB92E8030083E8030004238DF8AE
:101D84000C3000238DF80D3003238DF80E3006231C
:101D94008DF80F3005AB4FF4FA711846FFF757FF73
:101DA400089003A905AB164A1846FFF7E7FC09900B
:101DB400099B0793079B002B04D0124A9221079892
:101DC400FEF75CFB05A8002300930123089A002179
:101DD400FFF735FE05AB4FF4A0711846FFF724FF5B
:101DE4000346094A136005AB1846FFF7C1FD00BF5F
:101DF4000BB05DF804FB00BF6824000070240000F1
:101E0400111E0000242400009800002000BF704729
:101E1400BFF34F8F00BF074BDB6803F4E062054953
:101E2400054B1343CB60BFF34F8F00BF00BF00BF10
:101E3400FCE700BF00ED00E00400FA05024B034A92
:101E44001A6000BF704700BF000000200090D0035C
:101E540008B500F027F90346002B0ED04FF080435D
:101E64000022C3F80C214FF080430022C3F8102154
:101E74004FF080430022C3F8382500F037F90346B9
:101E8400002B76D04FF080537D4AD3F80434C2F847
:101E940020354FF080537A4AD3F80834C2F82435F9
:101EA4004FF08053764AD3F80C34C2F828354FF0FB
:101EB4008053734AD3F81034C2F82C354FF0805352
:101EC4006F4AD3F81434C2F830354FF080536C4A5B
:101ED400D3F81834C2F834354FF08053684AD3F835
:101EE4001C34C2F840354FF08053654AD3F820348F
:101EF400C2F844354FF08053614AD3F82434C2F811
:101F040048354FF080535E4AD3F82834C2F84C3534
:101F14004FF080535A4AD3F82C34C2F850354FF05E
:101F24008053574AD3F83034C2F854354FF08053B5
:101F3400534AD3F83434C2F860354FF08053504AD2
:101F4400D3F83834C2F864354FF080534C4AD3F890
:101F54003C34C2F868354FF08053494AD3F84034D2
:101F6400C2F86C354FF08053454AD3F84434C2F874
:101F7400703500F0DFF80346002B02D0414B424A93
:101F84001A6000F0E9F80346002B03D03F4BFB2214
:101F9400C3F8182500F0F2F80346002B0AD03C4B96
:101FA4001B6823F00F023B4B1B6803F00F033849F7
:101FB40013430B6000F0F4F80346002B03D0364BB8
:101FC4004FF400721A6000F0FDF80346002B0DD0A8
:101FD4004FF08043D3F8003403F00103002B05D005
:101FE4004FF080436FF00102C3F800242B4BD3F869
:101FF40088302A4A43F47003C2F88830BFF34F8F05
:1020040000BFBFF36F8F00BF4FF01023D3F800322F
:10201400002B05DB4FF01023D3F80432002B2BDA0E
:102024001F4B0122C3F8042500BF1D4BD3F8003415
:10203400002BFAD04FF010231222C3F8002200BF65
:10204400174BD3F80034002BFAD04FF01023122290
:10205400C3F8042200BF124BD3F80034002BFAD08B
:102064000F4B0022C3F8042500BF0D4BD3F80034F6
:10207400002BFAD0FFF7CCFEFFF7E0FE00BF08BD4F
:1020840000C000408C5600404881030000F000402E
:10209400E40E0040580200104096024000ED00E0BB
:1020A40000E001400F4B1B68082B17D10E4B1B6837
:1020B400002B01D1012312E00B4B1B68012B01D132
:1020C40001230CE0084B1B68022B01D1012306E01D
:1020D400054B1B68032B01D1012300E001231846A3
:1020E400704700BF30010010340100100F4B1B6813
:1020F400082B17D10E4B1B68002B01D1012312E0D2
:102104000B4B1B68012B01D101230CE0084B1B680E
:10211400022B01D1012306E0054B1B68032B01D1DF
:10212400012300E001231846704700BF300100106E
:1021340034010010064B1B68082B05D1054B1B68A6
:10214400002B01D1012300E000231846704700BF93
:102154003001001034010010064B1B68082B05D118
:10216400054B1B68002B01D1012300E00023184616
:10217400704700BF3001001034010010064B1B688B
:10218400082B05D1054B1B68002B01D1012300E06E
:1021940000231846704700BF3001001034010010BE
:1021A400064B1B68082B05D1054B1B68002B01D17E
:1021B400012300E000231846704700BF30010010DF
:1021C400340100100F4B1B68082B17D10E4B1B68F2
:1021D400002B01D1012312E00B4B1B68012B01D111
:1021E40001230CE0084B1B68022B01D1012306E0FC
:1021F400054B1B68032B01D1012300E00123184682
:10220400704700BF3001001034010010082938BFA6
:1022140070470022C0E9002140F2A001C2F200018F
:102224000860704700220B0011001A0084465AB35C
:10223400830704D000F8011B013AF9D124E0C9B2A4
:1022440041EA012141EA0141202A11D3203A2DE932
:10225400F0030B460C460D460E460F46884689464B
:10226400A0E8FA03203AFBD2BDE8F00320320BD0F9
:10227400042A05D340F8041B043A05D0042AF9D2F1
:0C22840000F8011B013AFBD160467047D6
:10229000433A5C6E63735C6E52463553444B313641
:1022A0003030393861303865325C636F6D706F6E15
:1022B000656E74735C6C69627261726965735C757A
:1022C00074696C5C6170705F7574696C5F706C616F
:1022D00074666F726D2E63002E2E2F2E2E2F2E2ED3
:1022E0002F2E2E2F2E2E2F2E2E2F696E7465677295
:1022F0006174696F6E2F6E7266782F6E7266785F8A
:10230000676C75652E6800002E2E2F2E2E2F2E2E18
:102310002F2E2E2F2E2E2F2E2E2F6D6F64756C6567
:10232000732F6E7266782F68616C2F6E72665F67AE
:1023300070696F2E6800000000000050000300501C
:10234000433A5C6E63735C6E52463553444B313690
:102350003030393861303865325C6D6F64756C656A
:10236000735C6E7266785C647269766572735C73B6
:1023700072635C6E7266785F6770696F74652E63F6
:10238000000000002E2E2F2E2E2F2E2E2F2E2E2F21
:102390002E2E2F2E2E2F696E746567726174696FF1
:1023A0006E2F6E7266782F6E7266785F676C7565D9
:1023B0002E680000433A5C6E63735C6E5246355380
:1023C000444B31363030393861303865325C6D6FAE
:1023D00064756C65735C6E7266785C647269766550
:1023E00072735C7372635C6E7266785F74696D653C
:1023F000722E63002E2E2F2E2E2F2E2E2F2E2E2FAE
:102400002E2E2F2E2E2F6D6F64756C65732F6E72AE
:1024100066782F68616C2F6E72665F74696D657285
:102420002E680000433A5C6E63735C6E524635530F
:10243000444B31363030393861303865325C65783C
:10244000616D706C65735C6D795F776F726B7370C3
:102450006163655C6770696F74655C6D61696E2E40
:102460006300000003010100008000400004000040
:08247000040003060000000057
:042478000090D003FD
:04000003000003896D
:00000001FF
