:100000000000042089030000710300007303000056
:100010007503000077030000790300000000000072
:100020000000000000000000000000007B03000052
:100030007D030000000000007F030000810300003A
:100040008303000083030000830300008303000098
:1000500083030000830300002913000083030000D2
:10006000E9190000830300008303000083030000FC
:100070008303000083030000830300008303000068
:100080008303000083030000830300008303000058
:100090008303000083030000830300008303000048
:1000A0008303000083030000830300008303000038
:1000B0008303000083030000000000000000000034
:1000C0008303000083030000830300008303000018
:1000D0008303000083030000830300008303000008
:1000E000830300008303000083030000000000007E
:1000F00000000000830300000000000083030000F4
:1001000000000000000000000000000000000000EF
:1001100000000000000000000000000000000000DF
:1001200000000000000000000000000000000000CF
:1001300000000000000000000000000000000000BF
:1001400000000000000000000000000000000000AF
:10015000000000000000000000000000000000009F
:10016000000000000000000000000000000000008F
:10017000000000000000000000000000000000007F
:10018000000000000000000000000000000000006F
:10019000000000000000000000000000000000005F
:1001A000000000000000000000000000000000004F
:1001B000000000000000000000000000000000003F
:1001C000000000000000000000000000000000002F
:1001D000000000000000000000000000000000001F
:1001E000000000000000000000000000000000000F
:1001F00000000000000000000000000000000000FF
:100200003A493B480A1A02D0072291438D463949A0
:1002100039480A1A06D00722914381F3098802223D
:1002200082F3148835483649364A00F041F836489A
:100230003649374A00F03CF836483749374A00F02B
:1002400037F837483749384A00F032F837483849E4
:10025000384A00F02DF838483849394A00F028F873
:1002600038483949394A00F023F8394839490022D9
:1002700000F036F838483949002200F031F83848A3
:100280003849091A01F062FE374A90472548264945
:10029000884205D00268043003B4904703BCF7E7F6
:1002A00000208646EC4600200021304A9047FEE7B9
:1002B000884214D0521A12D003460B43134303242E
:1002C000234206D1036804300B600431043AF9D1AB
:1002D0007047037801300B700131013AF9D1704752
:1002E000884202D002700130FAE770470000042013
:1002F00000E0032000000420000004200C21000086
:100300000000002004000020E4030000E4030000DB
:10031000CC1F00000C210000000000200000002085
:10032000CC1F0000CC1F0000CC1F0000CC1F000021
:10033000CC1F0000CC1F0000CC1F0000CC1F000011
:100340000B21000010210000040000200400002008
:10035000040000209C0000209C0000209C00002045
:100360009C0000209C200020B1030000011A000026
:10037000FEE7FEE7FEE7FEE7FEE7FEE7FEE7FEE755
:10038000FEE7FEE700F002B8FFF7FCBF0F484FF0B2
:100390000701884385460E4880470E48016841F4AE
:1003A00070010160BFF34F8FBFF36F8FFFF728BF5E
:1003B00009480A490A4A884207D0521A05D00378E8
:1003C00001300B700131013AF9D17047000004206F
:1003D000911B000088ED00E0CC1F00000000002011
:0403E00000000020F9
:1003E40086B003900291019201238DF817309DF895
:1003F4001730214A039B13601F4A029B53601E4A15
:10040400019B9360039B44F20102934213D0039B2C
:1004140044F20202934221D1019B174AD360164B46
:10042400DB681B881A46144B9A61134BDB685B68C4
:10043400114AD36112E0019B0F4A13610E4B1B69F1
:100444009B680D4A53610C4B1B691B680A4A9361F4
:10045400094B1B695B68084AD36100BF72B600BFD1
:1004640000BF9DF81730DBB2002BFAD162B600BF93
:1004740000BF06B0704700BF0400002000B583B081
:1004840002900091019244F2010071466A4600F024
:1004940003F803B000BD00BF00B587B0039002911C
:1004A400019272B600BF039B44F20102934207D04B
:1004B400039B44F20202934205D1019B059303E09E
:1004C400019B049300E000BF074B1B6803F001038A
:1004D400002B00D000BE019A02990398FFF780FF19
:1004E40000BF07B05DF804FBF0ED00E072B600BF9A
:1004F400034B1B680133024A136000BF704700BFFF
:1005040024000020064B1B68013B054A1360044B82
:100514001B68002B01D162B600BF00BF704700BF4B
:100524002400002000B583B0019000F025F80346B4
:10053400012B03D00449432000F03BF8FFF7D6FF1A
:1005440000BF03B05DF804FBCC1F000000B583B00E
:1005540003468DF8073000F00FF80346012B03D053
:100564000449512000F025F8FFF7CCFF00BF03B089
:100574005DF804FBCC1F000084B0EFF30583019306
:10058400019BC3F308030393039B002B0DD1EFF3EB
:1005940014830093009B0293029B03F00103002B3E
:1005A4000CBF01230023DBB200E00123184604B092
:1005B400704700B585B003460091ADF80630BDF82C
:1005C4000630ADF80830009B039302AB1A460021B5
:1005D40044F20200FFF760FF00BF05B05DF804FBC2
:1005E40082B003468DF807309DF8073003F01F02F0
:1005F40005499DF907305B09012000FA02F241F830
:10060400232000BF02B0704700E100E082B003463F
:1006140000918DF807309DF90730002B0CDA009B10
:10062400DAB20C499DF8073003F00F03043B520182
:10063400D2B20B441A7609E0009BDAB206499DF95E
:1006440007305201D2B20B4483F8002300BF02B03A
:10065400704700BF00ED00E000E100E000B583B0AA
:1006640003460A468DF8073013468DF806309DF888
:100674000630072B03D908496B20FFF79AFF9DF832
:1006840006209DF9073011461846FFF7BFFF00BF4B
:1006940003B05DF804FB00BF1420000000B583B074
:1006A40003468DF807309DF907301846FFF798FF89
:1006B40000BF03B05DF804FB82B003468DF8073039
:1006C4009DF8073003F1804303F5C043184602B098
:1006D400704700B583B00346ADF80630BDF8063068
:1006E400184600F026F803461B68012B0CBF0123B3
:1006F4000023DBB2184603B05DF804FB00B585B0F7
:100704000346ADF80630BDF80630184600F011F87F
:1007140003461A4600231360BDF80630184600F05D
:1007240008F803461B680393039B00BF05B05DF8FC
:1007340004FB82B00346ADF80630BDF8063003F181
:10074400804303F5C043184602B0704782B001905D
:10075400034A019BC2F8043300BF02B0704700BFD4
:100764000060004082B00190034BD3F80423019B46
:100774001340184602B070470060004082B00190F8
:10078400084A019B03F5A27352F82330054943F04C
:100794000102019B03F5A27341F8232000BF02B0BC
:1007A400704700BF0060004084B00390029113467C
:1007B4008DF80730144A039B03F5A27352F82330D3
:1007C400114923F44F3323F44073039A02F5A272C0
:1007D40041F822300C4A039B03F5A27352F82320FC
:1007E400029B1B0203F47C519DF807301B0403F4A5
:1007F40040330B4304491A43039B03F5A27341F8A6
:10080400232000BF04B070470060004082B0019014
:10081400054A019B03F5A27352F823301B0A03F027
:100824003F03184602B070470060004082B0019058
:10083400064A019B03F5A27352F823301B0C03F004
:100844000303DBB2184602B0704700BF00600040EB
:1008540084B00190094A019B03F5A27352F8233036
:1008640043F0030303930549019B03F5A273039A21
:1008740041F8232000BF04B0704700BF006000406F
:1008840084B00390029111461A460B468DF8073046
:1008940013468DF80630184A039B03F5A27352F8E9
:1008A4002330154923F4991323F4F853039A02F5DA
:1008B400A27241F82230104A039B03F5A27352F846
:1008C4002320029B1B0203F47C519DF807301B0478
:1008D40003F4403319439DF806301B0503F48013D9
:1008E4000B4305491A43039B03F5A27341F82320E4
:1008F40000BF04B0704700BF0060004000B583B083
:100904000190019B1B682F2B04D90B4940F2CD1099
:10091400FFF74FFE019B1B681F2B02D84FF0A0432B
:1009240006E0019B1B6803F01F02019B1A60034B46
:10093400184603B05DF804FB442000000003005097
:1009440000B585B00190084611461A4603468DF855
:1009540003300B468DF8023013468DF8013001AB9D
:100964001846FFF7CBFF03909DF803209DF8023053
:100974005B001A439DF801309B001A439DF8183020
:100984001B0242EA03019DF81C301B04019A19431F
:10099400039B02F5E07243F8221000BF05B05DF836
:1009A40004FB00B585B0039000230193002300935A
:1009B4000023012201210398FFF7C2FF00BF05B005
:1009C4005DF804FB00B585B003900B468DF80B3041
:1009D4009DF80B3000220192002200920022002197
:1009E4000398FFF7ADFF00BF05B05DF804FB00B549
:1009F40085B0019001AB1846FFF780FF0390019A80
:100A0400039B02F5E07253F8223023F002030293B1
:100A1400019A039B02F5E072029943F8221000BF89
:100A240005B05DF804FB00B585B001900B468DF868
:100A3400033001AB1846FFF761FF0390019A039B53
:100A440002F5E07253F82230019A23F44031039BFB
:100A540002F5E07243F82210019A039B02F5E0725A
:100A640053F822109DF803301B04019A1943039B89
:100A740002F5E07243F8221000BF05B05DF804FBF4
:100A840000B585B0019001AB1846FFF737FF03901E
:100A9400019B012202FA03F31946039800F04BF874
:100AA40000BF05B05DF804FB00B585B0019001AB53
:100AB4001846FFF723FF0390019B012202FA03F378
:100AC4001946039800F041F800BF05B05DF804FB37
:100AD40000B585B0019001AB1846FFF70FFF0390F6
:100AE400039800F020F80246019B22FA03F303F076
:100AF4000103184605B05DF804FB00B585B001900C
:100B040001AB1846FFF7FAFE0390019A039B02F526
:100B1400E07253F822301B0C03F00303DBB21846D7
:100B240005B05DF804FB82B00190019BD3F8103549
:100B3400184602B0704782B001900091019B009A60
:100B4400C3F8082500BF02B0704782B0019000913D
:100B5400019B009AC3F80C2500BF02B07047000047
:100B640000B589B0039002910192184A05AB92E84E
:100B7400030083E80300039A029B1344022B04D965
:100B8400134940F2FD20FFF714FD039B079311E086
:100B9400079B9B0020336B4453F80C3C1846FFF72B
:100BA400C2FF0246019B1A60019B04330193079B19
:100BB40001330793039A029B1344079A9A42E7D39B
:100BC40000BF00BF09B05DF804FB00BF7420000043
:100BD4004420000084B001900091009B0393019B8A
:100BE400DB080293019B03F0070301930122019B9D
:100BF40002FA03F30399029A0A441278134018463E
:100C040004B0704784B001900091009B0393019B52
:100C1400DB080293019B03F007030193039A029BF1
:100C240013441B785AB20121019B01FA03F35BB20E
:100C3400134359B2039A029B1344CAB21A7000BFF9
:100C440004B0704782B00190074A019B13442433D7
:100C540093F90030B3F1FF3F14BF01230023DBB24B
:100C6400184602B0704700BF2800002082B00190EF
:100C74000C4A019B1344243393F90030002B09DB05
:100C8400084A019B1344243393F90030072B01DCF9
:100C9400012300E0002303F00103DBB2184602B095
:100CA400704700BF2800002082B00190064A019BD3
:100CB4001344243393F90030072BCCBF01230023C2
:100CC400DBB2184602B070472800002082B00190C1
:100CD400064A019B1344243393F90030DB43DBB20F
:100CE400DB09DBB2184602B0704700BF28000020C1
:100CF40084B00390029101928DF80330029B59B2A3
:100D04000E4A039B134424330A461A700B49029B70
:100D1400019A41F823209DF8033083F00103DBB2EC
:100D2400002B08D0029B083B039A51B2034A134498
:100D34000A4683F8542000BF04B0704728000020FE
:100D440082B00190044A019B13442433FE221A709A
:100D540000BF02B0704700BF2800002082B001909D
:100D6400044A019B13442433FF221A7000BF02B0CB
:100D7400704700BF2800002000B583B001900449EB
:100D84000198FFF73FFF00BF03B05DF804FB00BF0D
:100D94007D00002082B00190044A019B1344243357
:100DA40093F90030184602B0704700BF28000020B5
:100DB40082B00190034A019B52F82330184602B0D6
:100DC400704700BF2800002000B589B0039002914D
:100DD40013468DF80730FF238DF81F309DF8073038
:100DE400002B01D0002300E0082305939DF8073071
:100DF400002B01D0082300E009230493059B0693EC
:100E040014E00F4A069B52F82330B3F1FF3F0AD196
:100E14009DF80730029A06990398FFF769FF069B2D
:100E24008DF81F3006E0069B01330693069A049B57
:100E34009A42E6D39DF91F30184609B05DF804FBC9
:100E44002800002082B003468DF807309DF8073053
:100E5400094A4FF0FF3142F823109DF80730072B61
:100E640007D99DF80730083B034A1344FF2283F84F
:100E7400542000BF02B070472800002000B583B0A2
:100E8400254B93F85B30002B03D008230093009B81
:100E94003EE000238DF8073009E09DF8073018463E
:100EA400FFF75CFF9DF8073001338DF807309DF89C
:100EB40007302F2BF1D900238DF8073009E09DF876
:100EC40007301846FFF7BEFF9DF8073001338DF851
:100ED40007309DF80730082BF1D9062200210F486E
:100EE40001F042F806210620FFF7B8FB0620FFF7C1
:100EF400D5FB4FF4BE70FFF701FC4FF00040FFF745
:100F040025FC054B012283F85B2000230093009B02
:100F1400184603B05DF804FB280000207D00002083
:100F240000B585B001900091019B2F2B04D92E4967
:100F34004FF49870FFF73DFB2C4B93F85B30012B7B
:100F440004D0294940F23110FFF733FB009B002BFA
:100F540004D125494FF49970FFF72BFB0023039329
:100F64000198FFF76FFE0346002B02D0082303937A
:100F740034E0009B9B78002B19D0012200210198BA
:100F8400FFF722FF03468DF80B309DF90B30B3F1C8
:100F9400FF3F09D09DF90B00009B1A78009B5B78FA
:100FA4000199FFF76DFC05E00423039302E0019827
:100FB400FFF7C6FE039B002B10D1009B5B78012B2F
:100FC40003D10198FFF75CFD02E00198FFF76CFD87
:100FD4000198FFF7E6FC0198FFF7CEFE039B184645
:100FE40005B05DF804FB00BF7C2000002800002051
:100FF40000B583B00190019B2F2B04D913494FF402
:10100400CD70FFF7D6FA0198FFF71CFE0346002BBC
:1010140004D10E4940F29B10FFF7CBFA0198FFF779
:1010240025FE0346002B04D108494FF4CE70FFF788
:10103400C0FA074A019B1344243393F9003018463D
:10104400FFF706FC00BF03B05DF804FB7C20000042
:101054002800002000B585B00190019B2F2B04D9F6
:1010640010494FF4D770FFF7A4FA0198FFF7FEFD7B
:101074000346002B04D10B4940F2AF10FFF799FA55
:101084000198FFF787FE0346DBB29B008DF80F3013
:101094009DF80F301846FFF70FFB0346184605B0BE
:1010A4005DF804FB7C20000000B587B0039002913A
:1010B4000192039B2F2B04D9364940F20720FFF7F6
:1010C40078FA002305930398FFF700FE0346002BEC
:1010D40002D00823059357E0029B9B78C3F3400397
:1010E400DBB21A4601990398FFF76EFE03468DF8AA
:1010F40013309DF91330B3F1FF3F43D0029B9B782B
:10110400C3F38003DBB283F00103DBB2002B13D003
:10111400029B9B7803F00103DBB2002B03D00398FE
:10112400FFF765FC05E0029B5B7819460398FFF71F
:1011340049FC0398FFF720FE029B9B7803F002030F
:10114400DBB2002B08D09DF91300029B1B781A46D2
:101154000399FFF729FB17E09DF91330083B0E4A6A
:10116400134493F95410029B1B789B015AB29DF9C6
:101174001330083B0A4351B2074A13440A4683F822
:10118400542001E004230593059B184607B05DF83D
:1011940004FB00BF7C2000002800002000B589B0BB
:1011A40001900B468DF80330019B2F2B04D93D4948
:1011B40040F23720FFF7FDF90198FFF787FD03465A
:1011C400002B04D137494FF40E70FFF7F2F9019860
:1011D400FFF76AFD0346002B2FD00198FFF7DAFDD5
:1011E4000346083B304A134493F954308DF80F30CA
:1011F4009DF80F309B098DF80E309DF80E30032BAF
:101204000BD10198FFF764FC0346002B01D00323A4
:1012140000E002238DF81F3008E09DF80E30012B0A
:1012240001D1022300E003238DF81F309DF81F3005
:1012340019460198FFF7F7FB30E00198FFF716FD18
:101244000346002B2AD00198FFF7A4FD034606931A
:10125400069B9BB240339BB29B00ADF81630069BB5
:101264001846FFF78BFABDF816301846FFF746FA12
:101274009DF80330002B11D00198FFF78BFD034636
:101284001846FFF795FD0490049B002B06D001221D
:10129400069B02FA03F31846FFF758FA00BF09B099
:1012A4005DF804FB7C2000002800002000B585B018
:1012B4000190019B2F2B04D9194940F28F20FFF78D
:1012C40078F90198FFF7F0FC0346002B0AD1019846
:1012D400FFF7CCFC0346002B04D111494FF42470D2
:1012E400FFF767F94FF4BE73ADF80E300198FFF7BE
:1012F400BDFC0346002B09D00198FFF74BFD0346C4
:101304009BB240339BB29B00ADF80E30BDF80E305B
:101314001846FFF70EFA0346184605B05DF804FBBD
:101324007C20000000B599B00023179306AB00227F
:101334001A605A604FF48073ADF856300123149349
:101344000023169321E0BDF856301846FFF7C1F983
:101354000346002B0ED01498FFF704FA0346002B23
:1013640008D0BDF856301846FFF7C8F9179A149BF1
:1013740013431793149B5B001493BDF85630043346
:10138400ADF85630169B01331693169B072BDAD90A
:101394004FF4BE70FFF79DF90346002B0DD04FF4B8
:1013A400BE70FFF7ABF9179B43F00043179306ABEE
:1013B4001A4602210020FFF7D3FB179BDBB2002B58
:1013C40029D0012314930023169321E0149A179B28
:1013D4001340002B16D01698FFF718FA11901698A0
:1013E400FFF724FA03468DF843301698FFF7E0FC24
:1013F4000F900F9B002B05D09DF843200F9B1146A7
:1014040011989847149B5B001493169B0133169311
:10141400169B072BDAD9179B002B80F2F080002350
:101424008DF84B3004AB00221A605A6000231393EA
:101434000AE0139B9B0060336B444FF0FF3243F888
:10144400582C139B01331393139B012BF1D90023C5
:101454008DF84B300023169378E06B4A169B1344A7
:10146400543393F900308DF83B309DF83B3023F032
:10147400C0030D93644A169B1344543393F900300C
:10148400B3F1FF3F5FD002AB19460D98FFF7A2FB03
:101494000346002B57D09DF83B309B098DF8333021
:1014A4000D98FFF777FC03461846FFF781FC0B9075
:1014B4000B9B002B03D19DF83330032B43D19DF8B4
:1014C4003330032B04D104AB19460D98FFF79AFB74
:1014D4000D98FFF712FB03468DF82B3006AB194627
:1014E4000D98FFF777FB0990099B002B03D09DF81B
:1014F4002B30022B06D0099B002B24D19DF82B30D6
:10150400032B20D19DF83330032B13D19DF82B30BE
:10151400022B01D1032300E002238DF823309DF830
:10152400233019460D98FFF77EFA9DF84B300133AE
:101534008DF84B300B9B002B05D09DF833200B9B73
:1015440011460D989847169B01331693169B002B52
:1015540083D09DF84B30002B4CD001238DF84A30BA
:101564006B461A4602210020FFF7FAFA0023139370
:1015740014E0139B9B0060336B4453F8602C139B63
:101584009B0060336B4453F8483C9A4203D00023D9
:101594008DF84A3005E0139B01331393139B012B01
:1015A400E7D99DF84A30002B03D000238DF84B3047
:1015B40020E0002313931AE0139B9B0060336B44D9
:1015C40053F8602C139B9B0060336B4443F8482C06
:1015D400139B9B0060336B4453F8502C139B9B006C
:1015E40060336B4443F8582C139B01331393139BC0
:1015F400012BE1D99DF84B30002B7FF428AF00BFBD
:1016040019B05DF804FB00BF2800002082B0034637
:101614008DF807309DF80730044A012101FA03F3DD
:10162400C2F8043500BF02B0704700BF00F00140AB
:1016340084B00346029101928DF80F3008499DF859
:101644000F30A233029A41F83320054A9DF80F3037
:10165400A233DB001344019A5A6000BF04B0704700
:1016640000F0014082B003468DF807309DF8073042
:10167400012202FA03F3184602B0704700B583B0A2
:1016840003468DF807309DF807301846FFF7EAFF48
:101694000346C3F31303002B14BF01230023DBB25F
:1016A400184603B05DF804FB82B00190012318468C
:1016B40002B0704700B583B003468DF807309DF83B
:1016C40007301846FFF7CEFF03461846FFF7ECFF36
:1016D4000346184603B05DF804FB000000B583B070
:1016E40003468DF807309DF807301846FFF7BAFF18
:1016F4000246064B1B681340002B14BF0123002332
:10170400DBB2184603B05DF804FB00BF8400002080
:1017140000B583B003468DF807309DF807301846AE
:10172400FFF7A0FF0246044B1B681343024A1360F1
:1017340000BF03B05DF804FB8400002000B587B04F
:101744000190002305930023039304230593244B62
:10175400039300238DF8133037E00020FEF7E2FEF8
:101764009DF813301846FFF77DFF0246039B134094
:10177400002B15D09DF813301846FFF7AFFF034632
:1017840083F00103DBB2002B0AD09DF81330184616
:10179400FFF7BEFF019B9DF813201A7000230593E9
:1017A4000020FEF7D3FE059B002B12D09DF81330CA
:1017B4001846FFF757FF0346DB43039A134003938E
:1017C4009DF8133001338DF81330039B002BC4D1E3
:1017D40000E000BF059B184607B05DF804FB00BF9E
:1017E400FFFF0F0000B587B00346029101928DF808
:1017F4000F30029B002B02D0019B002B01D10E2342
:1018040025E0002305939DF80F301846FFF736FFB7
:10181400034683F00103DBB2002B02D007230593B8
:1018240014E09DF80F301846FFF758FF034683F085
:101834000103DBB2002B02D00823059306E09DF8D8
:101844000F30019A02991846FFF7F2FE059B1846DD
:1018540007B05DF804FB00B585B003468DF807308A
:10186400002303939DF807301846FFF723FF034630
:1018740083F00103DBB2002B02D0072303931AE0A9
:101884009DF807301846FFF7F9FE0346002B0DD0EC
:101894009DF807301846FFF721FF034683F0010344
:1018A400DBB2002B02D00823039304E09DF8073039
:1018B4001846FFF7ABFE039B184605B05DF804FB22
:1018C40084B001900B46ADF80230BDF80230019AA5
:1018D400134400221A60BDF80230019A13441B68B5
:1018E4000393039B00BF04B0704782B001900B4682
:1018F400ADF80230BDF80230019A13441B68002B86
:1019040014BF01230023DBB2184602B0704782B033
:1019140001900091019BD3F80423009B1340002BFA
:1019240014BF01230023DBB2184602B0704782B013
:101934000190019B9B0003F5A0739BB2184602B073
:10194400704782B001904FF48032019B02FA03F396
:10195400184602B0704700B587B003900291134651
:101964008DF8073000238DF8173030E09DF81730DC
:101974001846FFF7DCFF0346ADF814309DF8173026
:101984001846FFF7DEFF0490BDF81430194603989B
:10199400FFF7ABFF0346002B14D004990398FFF71D
:1019A400B6FF0346002B0DD0BDF81430194603983A
:1019B400FFF786FF029B1B68029A5168BDF814204A
:1019C400104698479DF8173001338DF817309DF86D
:1019D40017209DF807309A42C8D300BF00BF07B054
:1019E4005DF804FB08B5042202490348FFF7B3FF7E
:1019F40000BF08BD880000200080004000B583B00F
:101A04000023019300F004F800F05AF8FEE7000008
:101A140000B587B000230593FFF730FA0590059BC6
:101A24000493049B002B04D0214A65210498FEF7FB
:101A340025FD204A01AB1268114619800233120CAD
:101A44001A7003238DF8053001AB1B4A19460B208D
:101A5400FFF72AFB0590059B0393039B002B04D0FF
:101A6400134A6C210398FEF709FD01210B20FFF7AF
:101A740095FB124A6B461268114619800233120C08
:101A84001A706B4619460D20FFF74AFA0590059B1C
:101A94000293029B002B04D0054A76210298FEF79C
:101AA400EDFC0D20FFF7A4FA00BF07B05DF804FBBE
:101AB400C0200000042100004D1B0000082100008C
:101AC40000B587B0002305931D48FFF737FE059046
:101AD400059B0493049B002B04D01A4A8621049886
:101AE400FEF7CCFC0B20FFF7E1FB03900D20FFF782
:101AF400B1FA0290124B1B78029A03991846FFF729
:101B040071FE0590059B0193019B002B04D00D4AA7
:101B14008F210198FEF7B2FC094B1B781846FFF79A
:101B24009AFE0590059B0093009B002B04D0054A68
:101B340093210098FEF7A2FC00BF07B05DF804FBF8
:101B440094000020C020000000BF7047BFF34F8FF7
:101B540000BF074BDB6803F4E0620549054B134300
:101B6400CB60BFF34F8F00BF00BF00BFFCE700BFD7
:101B740000ED00E00400FA05024B034A1A6000BFBE
:101B8400704700BF000000200090D00308B500F0AB
:101B940027F90346002B0ED04FF080430022C3F8F0
:101BA4000C214FF080430022C3F810214FF08043F2
:101BB4000022C3F8382500F037F90346002B76D00D
:101BC4004FF080537D4AD3F80434C2F820354FF0E7
:101BD40080537A4AD3F80834C2F824354FF080533E
:101BE400764AD3F80C34C2F828354FF08053734A40
:101BF400D3F81034C2F82C354FF080536F4AD3F821
:101C04001434C2F830354FF080536C4AD3F818348A
:101C1400C2F834354FF08053684AD3F81C34C2F804
:101C240040354FF08053654AD3F82034C2F8443528
:101C34004FF08053614AD3F82434C2F848354FF04A
:101C440080535E4AD3F82834C2F84C354FF08053A1
:101C54005A4AD3F82C34C2F850354FF08053574ABF
:101C6400D3F83034C2F854354FF08053534AD3F884
:101C74003434C2F860354FF08053504AD3F83834C6
:101C8400C2F864354FF080534C4AD3F83C34C2F860
:101C940068354FF08053494AD3F84034C2F86C3564
:101CA4004FF08053454AD3F84434C2F8703500F0FD
:101CB400DFF80346002B02D0414B424A1A6000F081
:101CC400E9F80346002B03D03F4BFB22C3F8182549
:101CD40000F0F2F80346002B0AD03C4B1B6823F0BB
:101CE4000F023B4B1B6803F00F03384913430B608F
:101CF40000F0F4F80346002B03D0364B4FF4007287
:101D04001A6000F0FDF80346002B0DD04FF080431D
:101D1400D3F8003403F00103002B05D04FF08043C7
:101D24006FF00102C3F800242B4BD3F888302A4A01
:101D340043F47003C2F88830BFF34F8F00BFBFF382
:101D44006F8F00BF4FF01023D3F80032002B05DB58
:101D54004FF01023D3F80432002B2BDA1F4B01224F
:101D6400C3F8042500BF1D4BD3F80034002BFAD070
:101D74004FF010231222C3F8002200BF174BD3F8F0
:101D84000034002BFAD04FF010231222C3F804229F
:101D940000BF124BD3F80034002BFAD00F4B0022B3
:101DA400C3F8042500BF0D4BD3F80034002BFAD040
:101DB400FFF7CCFEFFF7E0FE00BF08BD00C0004007
:101DC4008C5600404881030000F00040E40E0040BF
:101DD400580200104096024000ED00E000E001408F
:101DE4000F4B1B68082B17D10E4B1B68002B01D11E
:101DF400012312E00B4B1B68012B01D101230CE0E2
:101E0400084B1B68022B01D1012306E0054B1B681C
:101E1400032B01D1012300E001231846704700BFC2
:101E240030010010340100100F4B1B68082B17D130
:101E34000E4B1B68002B01D1012312E00B4B1B68D6
:101E4400012B01D101230CE0084B1B68022B01D1AB
:101E5400012306E0054B1B68032B01D1012300E09D
:101E640001231846704700BF3001001034010010F0
:101E7400064B1B68082B05D1054B1B68002B01D1B1
:101E8400012300E000231846704700BF3001001012
:101E940034010010064B1B68082B05D1054B1B6849
:101EA400002B01D1012300E000231846704700BF36
:101EB4003001001034010010064B1B68082B05D1BB
:101EC400054B1B68002B01D1012300E000231846B9
:101ED400704700BF3001001034010010064B1B682E
:101EE400082B05D1054B1B68002B01D1012300E011
:101EF40000231846704700BF300100103401001061
:101F04000F4B1B68082B17D10E4B1B68002B01D1FC
:101F1400012312E00B4B1B68012B01D101230CE0C0
:101F2400084B1B68022B01D1012306E0054B1B68FB
:101F3400032B01D1012300E001231846704700BFA1
:101F44003001001034010010082938BF7047002206
:101F5400C0E9002140F29801C2F200010860704714
:101F640000220B0011001A0084465AB3830704D0E0
:101F740000F8011B013AF9D124E0C9B241EA012178
:101F840041EA0141202A11D3203A2DE9F0030B46FE
:101F94000C460D460E460F4688468946A0E8FA03CD
:101FA400203AFBD2BDE8F00320320BD0042A05D33B
:101FB40040F8041B043A05D0042AF9D200F8011BA6
:081FC400013AFBD160467047B1
:101FCC00433A5C6E63735C6E52463553444B313608
:101FDC003030393861303865325C636F6D706F6EDC
:101FEC00656E74735C6C69627261726965735C7541
:101FFC0074696C5C6170705F7574696C5F706C6136
:10200C0074666F726D2E63002E2E2F2E2E2F2E2E99
:10201C002F2E2E2F2E2E2F2E2E2F696E746567725B
:10202C006174696F6E2F6E7266782F6E7266785F50
:10203C00676C75652E6800002E2E2F2E2E2F2E2EDF
:10204C002F2E2E2F2E2E2F2E2E2F6D6F64756C652E
:10205C00732F6E7266782F68616C2F6E72665F6775
:10206C0070696F2E680000000000005000030050E3
:10207C00433A5C6E63735C6E52463553444B313657
:10208C003030393861303865325C6D6F64756C6531
:10209C00735C6E7266785C647269766572735C737D
:1020AC0072635C6E7266785F6770696F74652E63BD
:1020BC0000000000433A5C6E63735C6E524635530D
:1020CC00444B31363030393861303865325C6578A4
:1020DC00616D706C65735C6D795F776F726B73702B
:1020EC006163655C7070695F62746E5F6C65645C83
:0F20FC006D61696E2E6300000200020003000197
:04210C000090D0036C
:04000003000003896D
:00000001FF
